:020000040800F2
:100000000000012009000008DFF81400016841F435
:100010007001016072B60348804703480047000042
:1000200088ED00E0494C00082D000008DFF80CD0F6
:1000300000F0D2FC00480047CDD0000800000120AD
:10004000324C334D256033484FF0010101604FF0D1
:10005000020080F31488304842682F4802602E4B1B
:10006000186887884FF0100847EA08078780D0F89B
:1000700000C00CF1640CBCE8FF000CF1480C8CF3E0
:1000800009882DED010ABDEC010AAE4662B6304783
:10009000EFF3108072B67047EFF3108062B67047CE
:1000A00080F3108870471D484FF080510160704701
:1000B000EFF3108C72B61A4A126822B12DE9005083
:1000C0009047BDE80050EFF3098020E9F01F20EDD4
:1000D000108B114D2E683060B7884FF0100827EA5A
:1000E0000807B7800C484068286087884FF01008E0
:1000F00047EA08078780016800F014B800F018B8D4
:1001000081F309888CF310887047000020ED00E02F
:100110000000F0F0440600200C06002004ED00E092
:1001200048060020B1EC088BB1EC08CBFFF7E6BF26
:1001300030C9B1E8C01FFFF7E3BF2DE9F05F054606
:10014000002092469B4688460646814640241BE096
:10015000284641464746224600F088FB53465A4609
:10016000C01A914110D311461846224600F04AF8B1
:100170002D1A67EB01084F4622460120002100F0AE
:1001800041F817EB00094E41201EA4F10104DFDC09
:10019000484631462A46434600F000B830BCBDE828
:1001A000C09F2DE9F0410024061B254671F1000691
:1001B00005DA01240027D0EB070067EB0101161ECA
:1001C00073F1000605DA0027D2EB0702012567EB81
:1001D0000303FFF7B2FF86460E4617469C46AC4225
:1001E00004D00025D0EB050E65EB010624B10020FC
:1001F000D2EB000760EB030C704631463A4663468B
:10020000BDE8F081202A04DB203A00FA02F1002048
:1002100070479140C2F1200320FA03F31943904044
:1002200070470000004870479C79010810B5441AD7
:100230000346944209D28418114403E011F8013DA9
:1002400004F8013D521EF9D210BD40EA0104A40792
:1002500003D009E010C9121F10C3042AFAD203E028
:1002600011F8014B03F8014B521EF9D210BDD2B266
:1002700001E000F8012B491EFBD270470022F6E78F
:1002800010B513460A4604461946FFF7F0FF20460C
:1002900010BD421E12F8013F002BFBD111F8013BAB
:1002A00002F8013B002BF9D1704730B505462A46CC
:1002B0000B4612F8010B13F8014B08B1A042F8D01D
:1002C0001CB1002802D06D1CF1E7284630BD10B5E6
:1002D000044604E00B7800F8013B03B1491C521EB0
:1002E000F8D2204610BD421C10F8011B0029FBD19A
:1002F000801A704730B504460020034600E05B1CBE
:10030000934203D2E05CCD5C401BF8D030BD30B5E9
:1003100005460020034600E05B1C934205D2EC5CDE
:10032000C85C201A01D1002CF6D130BD0246C9B2FA
:1003300000E0401C0378002BFBD102E003788B42E5
:1003400003D0401E9042F9D2002070472DE9FE4FA5
:10035000804681EA0300C00F0C46009021F0004166
:1003600023F00045B8EB0200A94105D240462146E2
:1003700090461C460B46024623F00040104347D0EF
:10038000270DC7F30A00C3F30A510290401A0190E7
:1003900040286BDAC3F3130040F4801B00989246A8
:1003A00020B10023D2EB030A63EB0B0B01985946F3
:1003B000C0F140025046FFF725FF06460D46504665
:1003C0005946019A00F062FA10EB080061410024DE
:1003D00087EA115284EAE7731A4340D0009A62B365
:1003E000019A012A4FEA075215DC001B61EB02015A
:1003F0004FF0004202EA0752CDE90042001C41F5ED
:10040000801132462B4600F099FA03B000F045B84F
:1004100040462146F9E7001B61EB0201001C41F553
:10042000801300185B412018A2F5001747EB030169
:1004300040EAD570B6196D4111E06D084FEA3606F5
:1004400045EAC0754FEA0752001B61EB0201001C30
:1004500041F5801149084FEA3000001951413246F8
:100460002B4603B000F01CB800F059BA00980122E6
:1004700040000023D0EB020263EBE07300982146BA
:100480004FEAE074B8EB000061EB0401E9E783F0A8
:1004900000435BE781F0004158E730BCBDE8C08F06
:1004A00030BCBDE8C04FFFF7DFBF2DE9FE4F81EA4A
:1004B000030404F0004421F0004100944FF0000BCD
:1004C00023F0004350EA01045ED052EA03045BD0FB
:1004D000C3F30A54C1F30A552C44A4F2F334019433
:1004E000A0FB0254C1F3130141F48011C3F31303C1
:1004F00043F4801301FB024400FB034E840A970A75
:1005000044EA815447EA8357A4FB076802958D0AA1
:1005100005FB07854FEA932C04FB0C542705029D2D
:100520004FEA065847EA1637B5EB08056EEB070C9D
:10053000870E920E47EA811742EA8312A7FB020157
:10054000B6EB0B0164EB00042B0D43EA0C335E1891
:1005500044EB1C50DA465146E7FB0201C5F3130495
:100560004FEA0B3343EA14534FEA0432019C43EA47
:100570000603A4F10C040294009CCDE900B400F041
:10058000DDF903B000F003B800200146F9E730BC04
:10059000BDE8C08F2DE9F04D81EA030404F0004B63
:1005A00021F0004514464FF0000A23F0004150EAC4
:1005B000050220D054EA01021DD0C5F30A570246B5
:1005C000C5F31303C1F31300C1F30A5640F48015B9
:1005D00043F48013A7EB0608101BD64608F2FD383B
:1005E00073EB050002D308F1010801E092185B41AA
:1005F000B8F1000F03DA00200146BDE8F08D0020BD
:100600004FF48011064684460EE0171B73EB050776
:1006100005D3121B63EB050306434CEA010C4908A2
:100620004FEA300092185B4150EA0107EDD152EADF
:10063000030012D082EA040083EA0501084305D0D2
:10064000101BAB4106D20122002306E000224FF02E
:10065000004302E06FF0010253101AEB06004CEB6E
:10066000085110EB0A0041EB0B01BDE8F04D00F022
:1006700056B90EB5C10F80EAE0700844CA070021E0
:1006800040F233438DE80E000A460B4600F056F95F
:1006900003B000BD0EB540F2334102910021CDE917
:1006A00000110A460B4600F049F903B000BD3EB503
:1006B000CA17CB0F002450405140C0186141DA07DF
:1006C00040F233430094CDE901232246234600F053
:1006D00035F903B030BDC1F30A5210B5C1F31301AF
:1006E00040F2FF3341F480119A4201DA002010BD3C
:1006F00040F233439A42A2F2334203DC524200F00A
:10070000B5F810BD904010BD70B5C1F30A5201F0AC
:1007100000450024C1F3130140F2FF3341F480117E
:100720009A4202DA0020014670BD40F233439A42F9
:10073000A2F2334203DC524200F098F801E0FFF7E6
:1007400061FD2C43F0D00023D0EB030063EB0101EB
:1007500070BDC1F30A52C1F3130140F2FF3341F4FB
:1007600080119A4202DA00200146704740F233437A
:100770009A42A2F2334202DC524200F077B8FFF70D
:1007800041BD00F0004230F000400AD0C10D01F53B
:100790006071C0F3160042EA0151C20840071143DC
:1007A000704700200146704730B5041E71F1000407
:1007B00004DB4FF00044404264EB0101141E73F16E
:1007C000000405DB1C464FF00043524263EB040378
:1007D0008B4208BF824230BD30B5041E71F1000467
:1007E00004DB4FF00044404264EB0101141E73F13E
:1007F000000405DB1C464FF00043524263EB040348
:10080000994208BF904230BD01F0004330B421F05E
:10081000004150EA010206D00A0DA2F56072C1F350
:100820001301002A02DC30BC00207047440F44EA68
:10083000C104C100E01830BC00EBC25000F038B871
:1008400030B50B46014600202022012409E021FAA0
:1008500002F59D4205D303FA02F5491B04FA02F59D
:100860002844151EA2F10102F1DC30BD202A04DB70
:10087000203A21FA02F00021704721FA02F3D04019
:10088000C2F120029140084319467047202A06DB36
:10089000CB17203A41FA02F043EAE07306E041FA4E
:1008A00002F3D040C2F1200291400843194670473C
:1008B0000029A8BF7047401C490008BF20F0010074
:1008C000704710B4B0FA80FC00FA0CF050EA010452
:1008D00004BF10BC704749B1CCF1200421FA04F4E4
:1008E00011FA0CF118BF012121430843A3EB0C01BD
:1008F000CB1D4FEA00614FEA102042BF002010BC20
:10090000704700EBC35010440029A4BF10BC7047CF
:10091000401C490008BF20F0010010BC704710B512
:10092000141E73F1000408DA401C41F10001921812
:100930005B411A4301D120F0010010BD2DE9F04DBB
:1009400092469B4611B1B1FA81F202E0B0FA80F210
:1009500020329046FFF756FC04460F4640EA0A0054
:1009600041EA0B0153465A46084313D0114653EA55
:10097000010019D0C8F140025046FFF777FF054645
:100980000E46504659464246FFF73CFC084305D008
:10099000012004E020463946BDE8F08D00200543E3
:1009A00046EAE0762C4337430A986305E40AA0EB55
:1009B00008000022FD0A44EA47540A3002D500200C
:1009C0000146E9E7010510196941DDE9084500190B
:1009D0006941BDE8F04DA2E7064C074D06E0E0682E
:1009E00040F0010394E8070098471034AC42F6D376
:1009F000FFF720FB907F0108C07F010870B58C18BD
:100A000010F8015B15F0070301D110F8013B2A1122
:100A100006D110F8012B03E010F8016B01F8016B0F
:100A20005B1EF9D12B0705D40023521E0DD401F80B
:100A3000013BFAE710F8013BCB1A921C03E013F8D4
:100A4000015B01F8015B521EF9D5A142D8D3002009
:100A500070BD10B5044602F0E5F9462002F09EF99B
:100A600000BF02F03FFA0028FBD1642008F0A8FA8A
:100A7000204602F093F900BF02F034FA0028FBD1BF
:100A8000642008F09DFA02F0FDF9052003F002FB56
:100A900010BD000010B52DED048B04F05BF8B42000
:100AA00003F0F8FA04F030F8114800781149088092
:100AB0000F484078097800EB01200E49088008466D
:100AC0000088FFF7E7FD41EC190B9FED0B0B53EC92
:100AD000102BFFF75FFD41EC180BFFF795FE08495F
:100AE0000860084690ED000ABDEC048B10BD0000C4
:100AF0009005002092050020333333333333F33F26
:100B00008C05002007E0002101E04A1CD1B20A292F
:100B1000FBDB421E90B20028F5D1704708B500BF3C
:100B20000A48C06C40F001000849C8640846C06C1F
:100B300000F00100009000BF00BF00F019F8012292
:100B4000D1024FF0904000F0F3FD08BD00100240CC
:100B500000B585B04FF400600090002001900120A6
:100B6000029069464FF0904000F0F4FC05B000BDE3
:100B700000B585B04FF40060009001200190022084
:100B8000039069464FF0904000F0E4FC05B000BDD2
:100B900070B5002500242AE000BF4FF400614FF03B
:100BA000904000F0BDFD0028F7D02820FFF7AAFFF5
:100BB0004FF400614FF0904000F0B2FD01280FD1DA
:100BC00000BF4FF400614FF0904000F0A9FD0128F4
:100BD000F7D0C4F1070101208840C0B2054304E00A
:100BE000C4F10701012088408543601CC4B2082C71
:100BF000D2DB284670BD000070B52DED028B044697
:100C0000FFF7B6FF00224FF400614FF0904000F074
:100C10008FFD122000F042FC0122D1024FF09040E3
:100C200000F086FD1E20FFF76DFFFFF791FF4FF4E8
:100C300000614FF0904000F073FD00285FD100BFCD
:100C40004FF400614FF0904000F06AFD0028F7D0AB
:100C500000BF4FF400614FF0904000F061FD0128AB
:100C6000F7D0FFF795FF2070FFF792FF6070FFF756
:100C70008FFFA070FFF78CFFE070FFF789FF2071F6
:100C8000FFF776FF0122D1024FF0904000F050FDB7
:100C90006078217801EBC10202EB011100EB8100C9
:100CA00008EE100AB0EE480AB8EE400ADFED150A69
:100CB00080EE201A84ED021AE078A17801EBC102DF
:100CC00002EB011100EB810008EE100AB8EE480AB1
:100CD000DFED0C0A80EE201A84ED031A207861788B
:100CE0000844A1780844E1780844C5B22079A842B4
:100CF00003D10120BDEC028B70BD0020FAE700207B
:100D0000F8E700000000C84210B5012000F014FC14
:100D100010BD10B5022000F00FFC10BD10B504206E
:100D200000F00AFC10BD10B5082000F005FC10BD55
:100D30002DE9F84305460C46002700200090FE49A7
:100D4000E068884200D000E000BF00BF95F8540082
:100D5000012802D10220BDE8F883012085F8540063
:100D600000BF286802F050F9002876D16068052895
:100D70001AD86068022806D0032807D0042808D0B3
:100D800005280DD108E00C2060600CE012206060A6
:100D900009E01820606006E04FF48070606002E0B7
:100DA0000620606000BF00BF2968D4E9002000F47D
:100DB000407C4FF4407898FAA8F8B8FA88F82CFAF2
:100DC00008FC01F1300808EB8C0300F01F094FF01C
:100DD0001F0808FA09F8D3F800C02CEA080C00F044
:100DE0001F09C2F3846808FA09F84CEA080CC3F832
:100DF00000C000BF2868806800F00C0008B1012026
:100E000000E00020002827D1A2682168286802F0AD
:100E100000F960692968C968C1F3C101490000FA95
:100E200001F62069042819D028682268216900F198
:100E3000600C0CEB8103DFF80483D3F800C00CEAEC
:100E4000080C02F0F84848F0004848EA06084CEA66
:100E5000080CC3F800C000BFA8E0E5E10021286845
:100E600002F0C4F8C0F3120030B90021286802F083
:100E7000BDF8C0F3846007E00021286802F0B6F8EE
:100E800090FAA0F0B0FA80F02168C1F3120119B90C
:100E90002168C1F3846104E0216891FAA1F1B1FAFB
:100EA00081F1884204D100221146286802F0E0F85E
:100EB0000121286802F09AF8C0F3120030B901212C
:100EC000286802F093F8C0F3846007E001212868E5
:100ED00002F08CF890FAA0F0B0FA80F02168C1F32B
:100EE000120119B92168C1F3846104E0216891FA03
:100EF000A1F1B1FA81F1884204D1002201212868D0
:100F000002F0B6F80221286802F070F8C0F312006F
:100F100030B90221286802F069F8C0F3846007E064
:100F20000221286802F062F890FAA0F0B0FA80F08E
:100F30002168C1F3120119B92168C1F3846104E089
:100F4000216891FAA1F1B1FA81F1884204D100221D
:100F50000221286802F08CF80321286802F046F884
:100F6000C0F3120030B90321286802F03FF8C0F343
:100F7000846007E00321286802F038F890FAA0F0B6
:100F8000B0FA80F02168C1F3120119B92168C1F3E8
:100F9000846104E0216891FAA1F1B1FA81F18842FB
:100FA00004D100220321286802F062F828688068D2
:100FB00000F00300012806D12868006800F0010055
:100FC00008B1012000E0002000287CD12868E268F8
:100FD0002168D0F8B030C1F3120C23EA0C03C1F33E
:100FE000120C02F02009DFF8588108FA09F80CEA1F
:100FF000080C43EA0C03C0F8B03000BF4E49E0686B
:10100000884274D12368C3F312031BB92368C3F366
:10101000846304E0236893FAA3F3B3FA83F35B1CBD
:10102000092B38D82368C3F312031BB92368C3F311
:10103000846304E0236893FAA3F3B3FA83F35B1C9D
:101040004FF0010C0CFA03FC2368C3F312031BB925
:101050002368C3F3846304E0236893FAA3F3B3FA29
:1010600083F35B1C4CEA836C2368C3F312031BB944
:101070002368C3F3846304E0236893FAA3F3B3FA09
:1010800083F35B1C03EB43034FF0000848EA035370
:101090004CEA03033AE02368C3F312031BB9236845
:1010A000C3F3846304E0236893FAA3F3B3FA83F3EE
:1010B0005B1C4FF0010C0CFA03FC2368C3F3120312
:1010C0002BB9236800E083E0C3F3846304E0236862
:1010D00093FAA3F3B3FA83F35B1C4CEA836C2368A3
:1010E000C3F3120323B92368C3F3846305E012E05A
:1010F000236893FAA3F3B3FA83F3093B03EB4303A7
:101100004FF0007848EA03534CEA03031946A268FB
:10111000286801F07EFF0B492068884205D10A4803
:1011200001F05FFF00F4000008B30849206888421E
:1011300013D105480CE0000000007F4000F0FF03E1
:10114000FFFF0700000052C700030450000084CBDB
:1011500001F047FF00F0807048B1394920688842AB
:1011600067D1384801F03DFF00F4800080BB28685B
:10117000806800F00300012806D12868006800F0AC
:10118000010008B1012000E00020A0BB00BF2E49F3
:10119000206888421DD12D492868884249D12948B4
:1011A00001F01FFF40F400084146264801F05AFFB5
:1011B000274800682749B0FBF1F0C0EB0010C000E1
:1011C000009002E00098401E009000980028F9D19D
:1011D0002FE02149206888420ED11C4928688842A6
:1011E00027D1184801F0FDFE40F0807841461548AF
:1011F00001F038FF1DE011E011492068884218D144
:1012000012492868884214D10E4801F0EAFE40F4E1
:10121000800841460B4801F025FF0AE0A86D40F028
:101220002000A865012704E0A86D40F02000A86513
:10123000012700BF002085F8540000BF38468AE52A
:101240000100008000030450000052C70000045059
:101250000004002080841E00000084CBF8B5044602
:1012600000260025002000900CB90120F8BD20695F
:1012700018B1606A012800D100BFA06D30B92046C6
:1012800000F0E6F80020E06584F8540020688168EA
:10129000C1F3407131B120688168674A11408160B3
:1012A00000BF00BF206801F0AAFEB8B920688168BD
:1012B000624A114041F08051816000BF604800687F
:1012C0006049B0FBF1F000EB80004000009002E0CC
:1012D0000098401E009000980028F9D1206801F085
:1012E0008EFE40B9A06D40F01000A065E06D40F0AA
:1012F0000100E0650126A06D00F01000002872D109
:10130000206801F081FE0028F9D1A06D20F48070E2
:1013100040F00200A0652068806800F0030001280A
:1013200006D12068006800F0010008B1012000E04B
:10133000002050B900BF60684349896821F47C11DE
:101340000143414A916000BF00BFA16BE06941EADF
:101350004030E1680843A1680843A18C40EA014598
:10136000606A012803D1208D401E45EA4045E06AAD
:1013700028B1A08D00F47070216B084305432068EC
:10138000C0683249084028432168C86020688068E6
:1013900000F00C0008B1012000E0002010BB00218B
:1013A000A06941EA8031606B41EA40052068C0686D
:1013B00044F20201884328432168C860E06B012899
:1013C00012D1206C40F00101606C0843A16C08430D
:1013D000E16C08432168096940F2FC7291430843BB
:1013E0002168086106E01FE02068006920F0010024
:1013F000216808612069012809D12068006B20F06C
:101400000F00216A491E08432168086305E020682F
:10141000006B20F00F0021680863A06D20F002002F
:1014200040F00100A06504E0A06D40F01000A06550
:10143000012630461AE70000C0FFFF5FC0FFFF7FB4
:101440000004002080841E000003045007C0F0FF49
:1014500010B586B004460F492068884218D100BFF5
:101460000D48C06C40F400500B49C8640846C06C7D
:1014700000F40050009000BF00BF802001900B20BE
:1014800002900020039001A94FF0904000F062F814
:1014900006B010BD000004500010024070B50446B4
:1014A00000F04BF906462546681C00B16D1C00BFD4
:1014B00000F043F9801BA842FAD370BD10B5044672
:1014C000012C06D0022C08D0042C0AD0082C10D1F4
:1014D0000BE009A003F08CFF0CE00BA003F088FFE9
:1014E00008E00DA003F084FF04E00FA003F080FFEC
:1014F00000E000BF00BF10BD54686973206973200D
:1015000046340D0A00000000546869732069732096
:1015100046330D0A00000000546869732069732087
:1015200046320D0A00000000546869732069732078
:1015300046310D0A0000000010B50446044800685A
:10154000204020B1024804602046FFF7B7FF10BDDD
:101550001404014078B50346002200240020CBE0AB
:10156000012696400D6805EA0604002C72D04D68ED
:10157000022D02D04D68122D13D1D60803F120059B
:1015800055F826005507EE0E0F25B540A84356071F
:10159000F60E0D69B5402843D60803F1200545F83D
:1015A0002600186856000325B540A8430D7905F0BC
:1015B00003055600B540284318604D68012D08D03A
:1015C0004D68022D05D04D68112D02D04D68122DA9
:1015D00013D1986856000325B540A8435600CD683E
:1015E000B54028439860586801259540A8430D7977
:1015F000C5F30015954028435860D8685600032568
:10160000B540A84356008D68B5402843D8604D6862
:1016100005F08055B5F1805F6DD100BF394D2D6E5D
:1016200045F00105374E356635462D6E05F001054E
:10163000009500BF00BF4FEAB635960855F8260062
:1016400095072E0F0F25B540A843B3F1904F02D157
:10165000002515E04FE02C4DAB4201D101250FE0F4
:101660002A4DAB4201D102250AE0294DAB4201D1FE
:10167000032505E0274DAB4201D1042500E00725F5
:101680009607360FB5402843234D960845F82600A7
:10169000224D2868A0434D6805F48035B5F5803F9C
:1016A00000D120431D4D28602D1D2868A0434D68A2
:1016B00005F40035B5F5003F00D12043174D2D1D31
:1016C00028602D1D2868A0434D6805F48015B5F5E8
:1016D000801F00D12043114D083528602D1D28683A
:1016E000A0434D6805F40015B5F5001F00D1204357
:1016F0000A4D0C352860521C0D68D540002D7FF432
:101700002FAF78BD001002400004004800080048D8
:10171000000C00480010004808000140000401408F
:10172000024613690B400BB1012000E00020704716
:101730000AB1816100E08162704710B502F0EEFDF0
:1017400010BD024692F8410020282DD100BF92F82A
:101750004000012801D102207047012082F840009A
:1017600000BF242082F841001068006820F00100CA
:10177000136818601068006820F4805013681860BF
:10178000106800680843136818601068006840F02B
:10179000010013681860202082F8410000BF00207B
:1017A00082F8400000BFD7E70220D5E710B5024617
:1017B0000B46002192F8410020282AD100BF92F860
:1017C0004000012801D1022010BD012082F8400014
:1017D00000BF242082F841001068006820F001005A
:1017E000146820601068016821F4706141EA0321E7
:1017F000106801601068006840F001001468206003
:10180000202082F8410000BF002082F8400000BF85
:10181000DAE70220D8E7000010B504460CB9012031
:1018200010BD94F8410028B9002084F840002046FB
:1018300000F054F8242084F841002068006820F06B
:10184000010021680860606820F07060216808610C
:101850002068806820F4004021688860E0680128E2
:1018600005D1A06840F400402168886004E0A068C9
:1018700040F4044021688860E068022802D18002B8
:10188000216848602068406813490843216848601F
:101890002068C06820F400402168C860D4E90401D1
:1018A0000843A16940EA01202168C860D4E9070122
:1018B0000843216808602068006840F00100216842
:1018C000086000206064202084F84100002020632C
:1018D00084F8420000BFA3E70080000210B586B084
:1018E00004461149206888421CD14FF44070019091
:1018F0001220029001200390032004900420059000
:1019000001A90A48FFF726FE00BF0948806D40F490
:101910000010074988650846806D00F400100090AB
:1019200000BF00BF06B010BD0054004000040048D6
:101930000010024010B5032000F06CF8002000F009
:1019400005F800F017F8002010BD000070B504463F
:10195000074800684FF47A71B0FBF1F5284600F0B3
:10196000B7FF00222146501E00F012F8002070BD83
:1019700000040020704700BF00F01F0201219140C9
:101980004209920002F1E022C2F8001100BF704744
:101990002DE9F05F80460D461646002702F03CFE1A
:1019A000074639462A46334601F00700C0F1070AC8
:1019B000BAF1040F02D94FF0040A01E0C0F1070A9E
:1019C000D14600F1040ABAF1070F02D24FF0000A23
:1019D00001E0A0F1030AD4464FF0010A0AFA09FA1D
:1019E000AAF1010A0AEA020A0AFA0CFA4FF0010BFC
:1019F0000BFA0CFBABF1010B0BEA030B4AEA0B04ED
:101A00002146404602F010FE00F000B830BCBDE8B0
:101A1000C09F000000BF00F00702064B19684FF698
:101A2000FF031940044B0B4343EA0221014B1960A9
:101A300000BF70470CED00E00000FA0502460021EF
:101A4000B2F5007F29D11D48006800F4C060B0F5F0
:101A5000007F31D01948006820F4C06040F4007065
:101A6000164B186016480068164BB0FBF3F0322393
:101A700000FB03F100E0491E31B11048406900F459
:101A80008060B0F5806FF6D00C48406900F480604B
:101A9000B0F5806F10D1032070470848006800F44B
:101AA000C060B0F5806F07D00448006820F4C060C3
:101AB00040F48060014B18600020EDE700700040AA
:101AC0000004002040420F000248006800F4C0609B
:101AD00070470000007000402DE9F84304460026DE
:101AE00000270025A846208800F40060B0F5006FAC
:101AF00026D1606C68B1B0F5000F03D0B0F5400F8F
:101B00000ED10CE0D448C06840F48030D249C8609F
:101B100008E00021201D02F0E1FE054602E001E0A0
:101B2000012500BF00BF55B9CB488830006820F4BC
:101B30004000616C0843C849C1F8880000E0A8462D
:101B4000206800F40030B0F5003F74D14FF0000978
:101B5000C148806D00F0805078B900BFBE48806DEC
:101B600040F08050BC4988650846806D00F0805088
:101B7000009000BF00BF4FF00109B848006840F472
:101B80008070B6490860FFF7D8FD074606E0FFF70A
:101B9000D4FDC01B022801D9032505E0AF48006829
:101BA00000F480700028F2D000BF7DBBAA489030BE
:101BB000006800F44076CEB1A06DB04216D0A648C1
:101BC0009030006820F44076A348D0F8900040F4AC
:101BD0008030A149C1F890000846D0F8900020F468
:101BE0008030C1F890000846C0F8906006F001000F
:101BF000A8B1FFF7A2FD074609E0FFF79EFDC01B55
:101C000041F28831884202D9032507E016E0924864
:101C10009030006800F002000028EED000BF5DB9EF
:101C20008D489030006820F44070A16D08438A49C7
:101C3000C1F8900003E00CE0A84600E0A846B9F126
:101C4000010F05D18448806D20F08050824988655D
:101C500000BF207800F0010048B17F48883000685C
:101C600020F00300216A08437B49C1F888002078EE
:101C700000F00200022809D177488830006820F07F
:101C80000C00616A08437449C1F88800207800F0AC
:101C90000400042809D170488830006820F0300022
:101CA000A16A08436C49C1F88800207800F0200040
:101CB000202809D168488830006820F44060E16A33
:101CC00008436549C1F88800208800F40070B0F529
:101CD000007F09D160488830006820F44020E16B23
:101CE00008435D49C1F88800208800F48060B0F5A1
:101CF000806F09D158488830006820F44010216C6A
:101D000008435549C1F88800207800F04000402879
:101D100009D151488830006820F44050216B0843B5
:101D20004D49C1F88800207800F08000802809D152
:101D300049488830006820F44040616B08434649B8
:101D4000C1F88800208800F48070B0F5807F09D148
:101D500041488830006820F44030A16B08433E4978
:101D6000C1F88800206800F40020B0F5002F1FD1D2
:101D700039488830006820F04060A16C084336493B
:101D800088310860A06CB0F1006F06D13248C0689D
:101D900040F480103049C8600AE0A06CB0F1806F58
:101DA00006D10121201D02F099FD054605B1A84686
:101DB000206800F48020B0F5802F1FD1264888309D
:101DC000006820F04060E16C0843234988310860D6
:101DD000E06CB0F1006F06D11F48C06840F480107D
:101DE0001D49C8600AE0E06CB0F1806F06D10121A6
:101DF000201D02F073FD054605B1A846208800F4B9
:101E00008040B0F5804F14D113488830006820F02E
:101E10004050216D0843104988310860206DB0F1B1
:101E2000805F06D10221201D02F058FD054605B154
:101E3000A846208800F40040B0F5004F09D10648BC
:101E40008830006820F08040616D08430249C1F885
:101E500088004046BDE8F883001002400070004052
:101E600070B504460D4600267048006800F0070073
:101E7000A8420ED26D48006820F0070028436B4945
:101E800008600846006800F00700A84201D0012061
:101E900070BD207800F00100002879D06068032828
:101EA00006D16348006800F00070D8B90120EFE760
:101EB0006068022806D15E48006800F4003088B9E6
:101EC0000120E5E7606830B95948006800F0020079
:101ED00040B90120DCE75648006800F4806008B98A
:101EE0000120D5E75248806820F00300616808436C
:101EF0004F498860FFF721FC06466068032810D12F
:101F000008E0FFF71AFC801B41F28831884201D9B2
:101F10000320BDE74648806800F00C000C28F0D193
:101F200036E06068022810D108E0FFF706FC801B4D
:101F300041F28831884201D90320A9E73C488068F2
:101F400000F00C000828F0D122E0606880B908E0B9
:101F5000FFF7F3FB801B41F28831884201D903204F
:101F600096E73348806800F00C000028F0D10FE0BD
:101F700008E0FFF7E2FB801B41F28831884201D97B
:101F8000032085E72A48806800F00C000428F0D17F
:101F9000207800F00200022807D12548806820F050
:101FA000F000A1680843224988602048006800F0DA
:101FB0000700A8420ED91D48006820F007002843FA
:101FC0001A4908600846006800F00700A84201D0DE
:101FD00001205DE7207800F00400042807D11448B0
:101FE000806820F4E060E168084311498860207847
:101FF00000F00800082808D10D48806820F46050DF
:10200000216940EAC1000A49886000F03DF80849AA
:102010008968C1F30311074A515CC840064908604A
:102020000020FFF793FC002032E700000020024070
:102030000010024000690108000400200148006807
:10204000704700000004002000B5FFF7F7FF0449C7
:102050008968C1F30221034A515CC84000BD0000F9
:10206000001002401069010800B5FFF7E7FF0449BE
:102070008968C1F3C221034A515CC84000BD000019
:102080000010024010690108F0B50021002300246F
:102090000225022200203B4EB66806F00C065EB117
:1020A000384EB66806F00C060C2E1ED1354EF6687A
:1020B00006F00306012E18D1324E366806F00806E7
:1020C0002EB9304E94363668C6F3032103E02D4E08
:1020D0003668C6F303112C4E56F82110294EB66807
:1020E00006F00C0686B908460EE0264EB66806F0E5
:1020F0000C06042E01D1254806E0224EB66806F0F3
:102100000C06082E00D122481E4EB66806F00C06BA
:102110000C2E36D11B4EF66806F00304194EF668F5
:10212000C6F30216721C012C19D0022C02D0032C0B
:1021300014D109E0154EB6FBF2F6124FFF68C7F353
:10214000062706FB07F313E0114EB6FBF2F60D4F20
:10215000FF68C7F3062706FB07F309E000BFB1FBE2
:10216000F2F6084FFF68C7F3062706FB07F300BF28
:1021700000BF044EF668C6F34166761C7500B3FBDB
:10218000F5F0F0BD00100240186901080024F400C9
:1021900000127A00F8B504460025207800F01000FF
:1021A00010286ED1F848806800F00C00002869D132
:1021B000F548006800F0020018B1A06908B90120D4
:1021C000F8BDF148216A006800F0080020B1EE482F
:1021D000006800F0F00005E0EB489430006800F47F
:1021E0007060000981421FD9206A02F03DFC08B1ED
:1021F0000120E5E700BFE448006840F00800E2493C
:1022000008600846006820F0F000216A0843DE49B3
:10221000086000BF0846406820F47F40E16940EA5A
:102220000120D94948601EE000BFD748006840F04F
:102230000800D54908600846006820F0F000216ACF
:102240000843D149086000BF0846406820F47F4039
:10225000E16940EA0120CC494860206A02F004FCB0
:1022600008B10120ACE7FFF70FFFC7498968C1F348
:102270000311C64A515CC840C54908600020FFF7F9
:1022800065FB4AE0A06980B3BF48006840F00100E8
:10229000BD490860FFF751FA054606E0FFF74DFA21
:1022A000401B022801D903208AE7B748006800F0E4
:1022B00002000028F2D000BFB348006840F00800D8
:1022C000B14908600846006820F0F000216A084320
:1022D000AD49086000BF0846406820F47F40E169CE
:1022E00040EA0120A849486017E0FFE7A6480068D7
:1022F00020F00100A4490860FFF71FFA054606E038
:10230000FFF71BFA401B022801D9032058E79E481B
:10231000006800F002000028F2D1207800F00100EF
:10232000002868D09848806800F00C0008280BD07E
:102330009548806800F00C000C280ED19248C068C7
:1023400000F00300032808D18F48006800F4003033
:1023500088B3606878BB012032E700BF6068B0F5E1
:10236000803F06D18848006840F480308649086084
:102370001AE06068B0F5A02F0BD18348006840F4E4
:102380008020814908600846006840F48030086079
:102390000AE07D48006820F480307B4908600846E8
:1023A000006820F48020086000BF606890B1FFF7EB
:1023B000C4F9054607E01EE0FFF7BFF9401B64289B
:1023C00001D90320FCE67048006800F400300028C2
:1023D000F2D010E0FFF7B1F9054606E0FFF7ADF9DE
:1023E000401B642801D90320EAE66748006800F42E
:1023F00000300028F2D1207800F0020002285ED1DF
:102400006148806800F00C0004280BD05E488068AA
:1024100000F00C000C2818D15B48C06800F00300E5
:10242000022812D15848006800F4806018B1E068B2
:1024300008B90120C4E65448406820F0F850217CD7
:1024400040EA01605049486039E0E06800B34E4816
:10245000006840F480704C490860FFF76EF905464B
:1024600006E0FFF76AF9401B022801D90320A7E61E
:102470004548006800F480600028F2D04248406877
:1024800020F0F850217C40EA01603F49486016E0A6
:102490003D48006820F480703B490860FFF74DF923
:1024A000054606E0FFF749F9401B022801D9032041
:1024B00086E63548006800F480600028F2D1207874
:1024C00000F00800082836D16069D0B12E48943059
:1024D000006840F001002C49C1F89400FFF72DF985
:1024E000054606E0FFF729F9401B022801D9032021
:1024F00066E625489430006800F002000028F1D01C
:1025000019E021489430006820F001001E49C1F80C
:102510009400FFF712F9054606E0FFF70EF9401B9D
:10252000022801D903204BE617489430006800F0D8
:1025300002000028F1D1207800F0040004286ED1B8
:1025400000261148806D00F0805070B900BF0E4821
:10255000806D40F080500C4988650846806D00F021
:102560008050009000BF00BF01260A48006800F4B8
:102570008070F0B90748006840F480700549086031
:10258000FFF7DBF805460EE0001002400069010885
:102590000004002000700040FFF7CFF8401B022825
:1025A00001D903200CE69D48006800F480700028E3
:1025B000F2D000BFA068012808D19948006840F017
:1025C000010097499039C1F8900021E0A0680528E2
:1025D0000FD19348006840F0040091499039C1F848
:1025E00090000846D0F8900040F00100C1F890003B
:1025F0000EE08B48006820F0010089499039C1F84D
:1026000090000846D0F8900020F00400C1F8900037
:1026100000BFA068A0B1FFF790F8054609E02DE0E3
:10262000FFF78BF8401B41F28831884201D9032023
:10263000C6E57B48006800F002000028F0D012E0F8
:10264000FFF77BF8054608E0FFF777F8401B41F2FB
:102650008831884201D90320B2E57148006800F052
:1026600002000028F0D1012E07D16D489038806D0E
:1026700020F080506A499039886500BF207800F0CA
:102680002000202838D1606AD8B165480830006839
:1026900040F0010062499039C1F89800FFF74DF809
:1026A000054606E0FFF749F8401B022801D9032040
:1026B00086E55B480830006800F002000028F1D091
:1026C0001AE057480830006820F00100544990395A
:1026D000C1F89800FFF731F8054606E0FFF72DF83E
:1026E000401B022801D903206AE54D4808300068E4
:1026F00000F002000028F1D1A06AE8B34848903801
:10270000806800F00C000C2874D0A06A022853D115
:1027100043489038006820F0807041499039086043
:10272000FFF70BF8054606E0FFF707F8401B022805
:1027300001D9032044E53A489038006800F0007061
:102740000028F1D1206B401E0101606B41EA00209E
:10275000E16A0843A18F0122C2EB510140EA4151D5
:102760004020005DC2EB500041EA40613820005D2E
:1027700041EAC0602A4900E04EE09039C86008464E
:10278000006840F0807008600846C06840F08070C3
:10279000C860FEF7D2FF054606E0FEF7CEFF401BFD
:1027A000022801D903200BE51D489038006800F08D
:1027B00000700028F1D02FE019489038006820F010
:1027C00080701749903908600846006800F0006082
:1027D00020B90846C06820F00300C860104890384F
:1027E000C068104908400E499039C860FEF7A5FF3F
:1027F000054607E00EE0FEF7A0FF401B022801D9C6
:102800000320DDE406489038006800F000700028DE
:10281000F1D101E00120D3E40020D1E400700040B8
:1028200090100240FFFFEEFE2DE9F04104460D46F8
:102830000026002700BF2079012802D10220BDE830
:10284000F0810120207100BF6079012820D1022091
:102850006071FEF772FF06460CE0FEF76EFF801B0C
:10286000022807D90420607100BF0020207100BF3A
:102870000320E4E72068406800F001000028ECD065
:1028800020688068A060A06828600120607100E076
:10289000012700BF0020207100BF3846CFE710B5E8
:1028A00004460CB9012010BD607920B900202071C8
:1028B000204600F00CF8022060712068006840F0AB
:1028C000040021680860012060710020EBE7704778
:1028D00070B504462546681EB0F1807F01D3012003
:1028E0000FE0681E4FF0E02148610F214FF0FF30EC
:1028F00001F09AFE00204FF0E02188610720086176
:10290000002070BD10B504460CB9012010BDA069AF
:1029100000B100E000BF94F8710028B9002084F8ED
:102920007000204600F02AF8242084F87100206806
:10293000006820F0010021680860204602F07AFA61
:10294000012800D1E2E7606A10B1204602F0A4F944
:102950002068406820F490402168486020688068C2
:1029600020F02A00216888602068006840F001009B
:1029700021680860204602F00BFAC7E710B586B060
:10298000044640492068884226D100BF3E48006E78
:1029900040F480403C4908660846006E00F48040E0
:1029A000009000BF00BF4FF4C06001900220029071
:1029B00000200390032004900720059001A94FF008
:1029C0009040FEF7C7FD002211462520FEF7E0FFEC
:1029D0002520FEF7D0FF52E02C492068884225D1FF
:1029E00000BF2948806D40F40030274988650846BB
:1029F000806D00F40030009000BF00BF0C200190FB
:102A000002200290002003900320049007200590EC
:102A100001A94FF09040FEF79DFD002211462620AF
:102A2000FEF7B6FF2620FEF7A6FF28E0184920682B
:102A3000884224D100BF1448806D40F480201249A0
:102A400088650846806D00F48020009000BF00BFBC
:102A50004FF4406001900220029000200390032078
:102A600004900720059001A90A48FEF773FD002293
:102A700011462720FEF78CFF2720FEF77CFF06B0CB
:102A800010BD00000038014000100240004400402A
:102A900000480040000800482DE9F84304460D4670
:102AA00016461F464FF0000994F87100202803D005
:102AB00094F87100222865D105B116B90120BDE84E
:102AC000F88300BF94F87000012801D10220F6E7D6
:102AD000012084F8700000BF0020606794F8710046
:102AE000222803D1232084F8710002E0212084F8F9
:102AF0007100FEF722FE8146A4F85060A4F85260EF
:102B000021E0B4F85200401EA4F852004B460022C7
:102B100080212046009702F0C1FB08B10320CEE7D8
:102B2000A068B0F5805F0AD1206940B9A846B8F81E
:102B30000000C0F3080021680885AD1C03E015F80B
:102B4000010B21680885B4F852000028D9DC4B46F7
:102B5000002240212046009702F0A0FB08B103208C
:102B6000ADE794F87100232803D1222084F8710086
:102B700002E0202084F8710000BF002084F870007B
:102B800000BF9CE702209AE77047000010B5FEF7EF
:102B9000D1FE01F0E7FF0948006806F033FF07F0B7
:102BA0006BFF01F00BFC01F00DFD01F0BDFB01F02E
:102BB000CFFC03A002F01CFC10BD000000040020AC
:102BC00057656C636F6D6520746F20496F542D439A
:102BD0006C75622C205468697320697320455642D5
:102BE0002D4D3120426F6172642E0D0A00000000ED
:102BF00010B500224FF480511448FEF799FD4FF0B4
:102C00009040006820F040404FF090410860084636
:102C1000006840F08040086000224FF400414FF00F
:102C20009040FEF785FD022006F0CAF9012211034B
:102C30000648FEF77DFD022006F0C2F900224FF49F
:102C400080510248FEF774FD10BD000000080048E6
:102C500000B587B000BF1B48C06C40F004001949A4
:102C6000C8640846C06C00F00400019000BF00BFBB
:102C700000BF0846C06C40F00100C8640846C06C44
:102C800000F00100019000BF00BF4FF4104002901F
:102C9000012003900220059002A94FF09040FEF71A
:102CA00059FC02A90848FEF755FC01221103064809
:102CB000FEF73EFD0122D1034FF09040FEF738FDB4
:102CC00007B000BD001002400008004810B5002207
:102CD0004FF480511348FEF72BFD4FF090400068F1
:102CE00020F040404FF0904108600846006840F0F6
:102CF000804008600122D1034FF09040FEF718FD9C
:102D0000022006F05DF9012211030648FEF710FDCE
:102D1000022006F055F900224FF480510148FEF7D9
:102D200007FD10BD0008004870B505464FF0904003
:102D3000006820F040404FF090410860084600686D
:102D40000860002400261DE000224FF48051124844
:102D5000FEF7EEFC022006F033F9012211030E48C3
:102D6000FEF7E6FC6006040E4FF400414FF0904081
:102D7000FEF7D6FC08B1601CC4B2012006F020F9B1
:102D8000701CC6B2082EDFDB15B9FFF79FFF01E00C
:102D9000FFF72EFF204670BD0008004870B50446BE
:102DA0004FF09040006820F040404FF090410860A4
:102DB0000846006840F08040086000224FF48051CF
:102DC0001748FEF7B5FC002527E0E00930B10122E5
:102DD000D1034FF09040FEF7ABFC06E000224FF429
:102DE00000414FF09040FEF7A3FC6006040E022065
:102DF00006F0E6F8012211030948FEF799FC0220CB
:102E000006F0DEF800224FF480510548FEF790FCF2
:102E1000022006F0D5F8681CC5B2082DD5DB70BDC0
:102E20000008004810B54FF09040006820F0404086
:102E30004FF0904108600846006840F0804008600C
:102E40000122D1034FF09040FEF772FC01221103E2
:102E50000B48FEF76DFC042006F0B2F800224FF498
:102E600000414FF09040FEF763FC042006F0A8F804
:102E700000224FF480510248FEF75AFC10BD0000BA
:102E80000008004810B54FF09040006820F0404026
:102E90004FF0904108600846006840F080400860AC
:102EA00000224FF480510E48FEF742FC00224FF4FE
:102EB00000414FF09040FEF73BFC042006F080F804
:102EC000012211030648FEF733FC0122D1034FF023
:102ED0009040FEF72DFC042006F072F810BD0000B3
:102EE0000008004810B500244FF09040006820F022
:102EF00040404FF090410860084600680860012299
:102F0000D1034FF09040FEF713FC042006F058F870
:102F1000012211030F48FEF70BFC042006F050F8C5
:102F200007E0601CC4B2FA2C03DDFFF7ABFF012001
:102F300010BD4FF400414FF09040FEF7F1FB002828
:102F4000EFD100224FF480510248FEF7F1FB002040
:102F5000EEE700000008004810B5012291020A487F
:102F6000FEF7E6FB0122D1020748FEF7E1FB002253
:102F70004FF400610448FEF7DBFB00224FF4806150
:102F80000148FEF7D5FB10BD0004004810B5012232
:102F900091020748FEF7CCFB00224FF40061044881
:102FA000FEF7C6FB0122D1020148FEF7C1FB10BDAE
:102FB0000004004810B5012291020548FEF7B8FB55
:102FC00000224FF480610248FEF7B2FB10BD000002
:102FD0000004004810B5FFF73BFE0120FDF739FD66
:102FE00010BD0146886800F0E0707047024602F1AB
:102FF000600000EB8103186800F0F840704701465C
:103000008868C0F30070704701468868C0F380008C
:10301000704770B501F000744FF0007595FAA5F592
:10302000B5FA85F5EC4000F1140505EB840301F0D9
:10303000F8754FF0F87696FAA6F6B6FA86F6F540E9
:103040000726AE401C68B44301F0F8754FF0F876DF
:1030500096FAA6F6B6FA86F6F54002FA05F52C437E
:103060001C6070BD826822F0E0720A438260704783
:1030700010B500F1600404EB81031C6824F00044E7
:1030800014431C6010BD02465018401E904204D9E3
:103090005018401E4B1E98437047481E22EA0000FD
:1030A000FAE770B505460C462246012128460DF088
:1030B000CFF970BD2DE9F84305460C4616461F466C
:1030C000DDF820800A48006848B10948CDF8008042
:1030D0003B4632462146D0F800C02846E047054826
:1030E000844202D00020BDE8F8830020FBE7000006
:1030F000A8060020F8C3B2A12DE9F04704460D460A
:1031000091461E46089F16B92448BDE8F087F02C6A
:1031100002D32248401EF8E7214904F1100051F87B
:1031200020002049884202D01C48C01CEDE7072D32
:1031300001DC002D02DA1948001DE6E7FCF7A8FFC4
:1031400080461949164A04F1100042F82010174928
:1031500041F8206060B200F01F0201219140420955
:10316000920002F1E022C2F8001100BF60B22946CD
:10317000002809DA0A074FEA126C0D4A00F00F0323
:103180001B1F02F803C003E00A07130E094A135479
:1031900000BF4046FCF784FF0020B6E701090002AB
:1031A000000000209DFD00087DFE0008F80D0020B5
:1031B00018ED00E000E400E010B50DF03FF92B48F9
:1031C00000682B4908600CF097FE044654B100BF1C
:1031D00028A002F00DF9214628A002F009F900BF4D
:1031E000204610BD0CF0F8FD0DF07AFD04464CB100
:1031F00000BF20A002F0FCF827A002F0F9F800BF01
:103200002046EEE70DF000FE0DF084F904460CB107
:103210002046E6E70CF084FE04460CB12046E0E7C9
:103220000CF0CCFF04464CB100BF12A002F0E0F855
:103230001EA002F0DDF800BF2046D2E70DF0CCFA68
:1032400004464CB100BF0BA002F0D2F81CA002F063
:10325000CFF800BF2046C4E70EF044F80CF0E4FDC0
:1032600004460CB12046BCE70020BAE7887F01087D
:10327000AC0600205B4552525D2000006F734D6527
:103280006D53797374656D496E6974206572726FE0
:10329000722025640A0000006F735461736B496EDD
:1032A0006974206572726F720A0000006F73517545
:1032B000657565496E6974206572726F720A0000E7
:1032C0006F735377546D72496E6974206572726FB3
:1032D000720A000042684A600860426811604160FA
:1032E000704742684A6008604268116041607047F8
:1032F00042684A60086042681160416070474268F5
:103300004A6008604268116041607047D0E900126D
:103310001160D0E9002151600021416001607047D7
:1033200001464868884201D1012070470020FCE72F
:1033300001464868884201D1012070470020FCE71F
:1033400001464868884201D1012070470020FCE70F
:1033500001464868884201D1012070470020FCE7FF
:1033600001464868884201D1012070470020FCE7EF
:1033700040600060704740600060704740600060DF
:10338000704740600060704770B504460D4629469E
:103390002068FFF79FFF70BD70B504460D460026FC
:1033A00004B10DB9304670BD294620460DF050F9E4
:1033B000064626B9294620460CF0FEFA0646304657
:1033C000F1E770B504460D461646324629462046BA
:1033D0000CF0AFFB70BD70B504460D46002604B17D
:1033E0000DB9012070BD294620460DF081F9064631
:1033F000012E04D0294620460CF0C8FB0646012EBB
:1034000001D00120EEE70020ECE700002DE9F84FA5
:1034100004460E464FF0010830480568D0F8009089
:103420000CB1502E02D8012000F076B804F0030051
:1034300008B10120F8E7FCF72BFE824620E0A868DF
:103440004719AC4202D8A019A84204D8BC4215D2F0
:10345000A019B84212D300BF21A001F0C9FFA8688B
:103460002844A2192B46214600901FA001F0C0FF5E
:1034700000BF5046FCF714FE0120D5E7A946ED68D1
:10348000002DDCD1314620460CF027FC8046B8F1F7
:10349000000F04D15046FCF703FE0120C4E7B6F547
:1034A000805F0BD320460DF060F98046B8F1000F25
:1034B00004D15046FCF7F4FD0120B5E70748006849
:1034C00010B90648046001E0C9F80C400020E06033
:1034D0005046FCF7E5FD0020A6E70000A40600200A
:1034E0005B4552525D200000706F6F6C205B257051
:1034F0002C20307825782920636F6E666C696374A0
:10350000207769746820706F6F6C205B25702C20A9
:1035100030782578290A000018BCBDE8E08F00004B
:103520002DE9F843064616B91E48BDE8F883FCF7B6
:10353000AFFD81461C48FFF703FF40B14846FCF74A
:10354000AFFD00BF174F7F1CDFF860801FE01648FB
:10355000446800BFD4E900010860D4E90010486065
:1035600000206060206000BFA4F108056880012091
:1035700028700020A882286105F10800FFF7FBFEF3
:10358000686830604846FCF78BFD0020CDE700BF3F
:10359000002003463A464146009005A0FFF78AFD09
:1035A0003846C2E7021D000274060020F8C3B2A12B
:1035B0006F735F756E73706563696669635F666973
:1035C0006C6500002DE9F84307460F2F03D300BFB9
:1035D0001D4D1E4E2DE007EB47001D49096801EB0C
:1035E000C004FCF755FD8046207830B94046FCF712
:1035F00057FD00BF144D154E1BE004F10800FFF706
:103600009FFE08B1608838B14046FCF749FD00BF15
:103610000D4D08350D4E0CE004F108010D48FFF783
:1036200060FE002020704046FCF73AFD0020BDE817
:10363000F88300BF002003462A463146009006A0CA
:10364000FFF738FD2846F2E7011D0002F8C3B2A1DA
:1036500070060020740600206F735F756E737065CE
:1036600063696669635F66696C6500002DE9F8430C
:10367000074688460F2F0BD300BF00200346494A58
:103680004949009049A0FFF715FD4648BDE8F88379
:1036900007EB47004A49096801EBC004FCF7F8FC56
:1036A0008146207868B94846FCF7FAFC00BF002044
:1036B00003463C4A3C4900903CA0FFF7FBFC3948DC
:1036C000E4E70CF0D7FB28B14846FCF7E9FC3548A5
:1036D000001DDBE73B480568608850B96088401CE6
:1036E00060802561E888A0824846FCF7D9FC00206C
:1036F000CCE72069A84207D16088401C608048461A
:10370000FCF7CEFC0020C1E7B8F1000F05D1484618
:10371000FCF7C6FC2348C01CB8E72B48008850B112
:10372000204E761D00BF29A001F062FE29A001F005
:103730005FFE00BF27E0EC612069C088E98888420D
:1037400003DDE98820690DF077FB4246082104F18A
:1037500008000DF0BDFC4846FCF7A2FC00F0CAF9D9
:10376000287900F0400060B1FCF792FC8146A888FF
:1037700020F04000A8804846FCF792FC094EB61D98
:1037800005E0002082E74846FCF78AFC00BF00BF46
:103790000020034632460449009004A0FFF78AFC4B
:1037A000304673E7011D0002F8C3B2A16F735F7565
:1037B0006E73706563696669635F66696C65000056
:1037C000700600200C060020140600205B455252B3
:1037D0005D2000002121214C4F535F4552524E4F36
:1037E0005F4D55585F50454E445F494E5F4C4F43C7
:1037F0004B2121210A0000002DE9F843064606EB83
:1038000046003049096801EBC004FCF741FC8046E2
:103810000F2E01D2207870B94046FCF741FC00BF62
:1038200000200346284A2949009029A0FFF742FCBE
:103830002548BDE8F8832B480768608810B12069E7
:10384000B8420DD04046FCF72BFC00BF00200346D9
:103850001D4A1E4900901EA0FFF72CFC1A48E8E7FD
:103860006088401E80B2608020B14046FCF718FCA2
:103870000020DEE72069C088A18A884203D0A18A9F
:1038800020690DF0D9FA04F10800FFF759FD98B945
:10389000E068A0F12805012060802561E888A08209
:1038A0000020E861082128460DF038FC4046FCF76E
:1038B000F7FB00F01FF902E04046FCF7F1FB0020A7
:1038C000B7E7000070060020011D0002F8C3B2A196
:1038D0006F735F756E73706563696669635F666950
:1038E0006C6500000C0600202DE9F05F0E46904646
:1038F000DDF8289009F104001FFA80FAB8F1000FF2
:1039000002D12E4800F060B84FF6FB70814502DD11
:103910002A480938F6E716B1B9F1000F02D1274855
:10392000401CEFE706FB0AF125480068FFF734FD6D
:10393000074617B921480A38E4E7FCF7A9FB834694
:103940002048FFF705FD50B15846FCF7A9FB394662
:103950001B480068FFF73FFD18480838D2E71948B0
:10396000456800BFD5E900010860D5E9001048604E
:1039700000206860286000BFA5F11C04E680A4F860
:1039800008A027600120A080002020826682A081FC
:10399000E08104F11400FFF7F1FC04F11C00FFF7D3
:1039A000EDFC04F12400FFF7E9FC5846FCF778FB36
:1039B0006089C8F800000020A4E700000C0600029F
:1039C000AC0600208006002030BCBDE8C09F00008F
:1039D0002DE9F041064600270A2E02D32648BDE80D
:1039E000F081FCF755FB804606EB460000EBC60075
:1039F0002249096801EB8004A08810B91E4D6D1D95
:103A000034E004F11400FFF7A3FC10B91A4DED1CCB
:103A10002CE004F11C00FFF79BFC10B9164DED1CC7
:103A200024E004F12400FFF793FC10B9124DED1CC3
:103A30001CE0608A218A0844E188884202D00E4D49
:103A4000AD1D13E0276800202060A08004F11C0158
:103A50000B48FFF74DFC4046FCF722FB394609486E
:103A60000068FFF7B8FC05462846B8E74046FCF773
:103A700017FB2846B3E70000050600027C0600207D
:103A800080060020AC0600202DE9F84381460C4654
:103A900015461E4633462A46214648460CF08EFC03
:103AA000074617B13846BDE8F8834FF000082B46AB
:103AB00022464146484600960CF0B8FBF3E72DE954
:103AC000FF4182B080460C461D462B4604AA214683
:103AD00040460CF093FC06461EB1304606B0BDE8E9
:103AE000F081032704AB22463946404600950CF08E
:103AF0009DFBF3E710B5FCF7CBFA04460CF0C4FAD3
:103B000028380A494860084600684968884208D051
:103B10000748008828B92046FCF7C2FAFCF7C3FA28
:103B200010BD2046FCF7BCFA00BFF9E70C060020E8
:103B30001406002070B505460C4622464FF6FF716C
:103B400028460CF085FC70BD2DE9F8430746142F7C
:103B500003D300BF1B4D1C4E29E01C48006800EB3E
:103B60000714FCF795FA8046208830B94046FCF7E8
:103B700097FA00BF134D144E19E004F10800FFF747
:103B8000EFFB38B94046FCF78BFA00BF0D4D083506
:103B90000D4E0CE004F108010D48FFF7B0FB0020CA
:103BA00020804046FCF77CFA0020BDE8F88300BF87
:103BB000002003462A463146009006A0FFF77AFA15
:103BC0002846F2E701070002F8C3B2A190060020E0
:103BD000880600206F735F756E7370656369666930
:103BE000635F66696C6500002DE9F8430746884607
:103BF000142F0BD300BF002003463C4A3C490090E1
:103C00003CA0FFF757FA3948BDE8F8833E48006802
:103C100000EB0714FCF73CFA8146208868B9484657
:103C2000FCF73EFA00BF00200346304A30490090BE
:103C300030A0FFF73FFA2D48E6E76088002807DD4F
:103C40006088401E60804846FCF72AFA0020DBE7C7
:103C5000B8F1000F02D1254DED1C39E00CF00AF946
:103C600050B1224D2D1D00BF28A001F0C1FB29A09D
:103C700001F0BEFB00BF2BE02F48008850B11B4D68
:103C80006D1D00BF21A001F0B3FB2CA001F0B0FB23
:103C900000BF1DE032480668B4614246082104F1C5
:103CA00008000DF015FA4846FCF7FAF9FFF722FF75
:103CB000307900F0400048B1FCF7EAF98146B0885D
:103CC00020F04000B080094DAD1D01E000209BE7D1
:103CD0004846FCF7E5F900BF002003462A460449A0
:103CE000009004A0FFF7E6F928468DE701070002DF
:103CF000F8C3B2A16F735F756E73706563696669AF
:103D0000635F66696C650000900600205B45525257
:103D10005D2000002121214C4F535F4552524E4FF0
:103D20005F53454D5F50454E445F494E5445525296
:103D30002121210A00000000140600202121214C2D
:103D40004F535F4552524E4F5F53454D5F50454E66
:103D5000445F494E5F4C4F434B2121210A00000034
:103D60000C060020F8B505462548006800EB051450
:103D7000142D01D32348F8BDFCF78AF907462088A3
:103D800068B93846FCF78CF900BF002003461D4A8D
:103D90001D4900901DA0FFF78DF91A48EBE7A08898
:103DA000618888420FD13846FCF77AF900BF0020BD
:103DB0000346144AD21D1449009014A0FFF77AF963
:103DC0001048C01DD7E704F10800FFF7C9FA70B921
:103DD000E068A0F128060020B061082130460DF00F
:103DE0009DF93846FCF75CF9FFF784FE05E0608832
:103DF000401C60803846FCF753F90020BBE7000008
:103E00009006002001070002F8C3B2A16F735F752E
:103E10006E73706563696669635F66696C650000EF
:103E200010B50DF0B3F904464CB100BF06A001F087
:103E3000DFFA07A001F0DCFA00BF204610BDFCF756
:103E4000FFF82046FAE700005B4552525D20000073
:103E50006F735469636B5374617274206572726F0F
:103E6000720A00002DE9F04105460F46002639464A
:103E7000284600F045F8064616B13046BDE8F08108
:103E80002868C0EBC00000EB40001949096801EB4D
:103E90008004FCF7FDF88046A08820F00200A08096
:103EA000A08840F00400A080E18804F128000CF014
:103EB0008FF80CF0E9F828380E4948600E48006881
:103EC00088B10E48008870B9084600684968884281
:103ED00009D00A48008830B94046FCF7E1F80CF0F8
:103EE000B3FA0020CAE74046FCF7DAF80020C5E73D
:103EF000080600200C0600204406002014060020BE
:103F00002DE9F05F07460C464FF000084FF0FF3AEE
:103F100017B9564800F0BAB814B95448801FF9E7E9
:103F2000206910B95148801EF4E7206810B94F4845
:103F3000C01EEFE7A0881F2802DD4C48001FE9E7FC
:103F4000A0881F2806D14A492068884202D04748E5
:103F5000001FDFE74748E1680068474A1268801A97
:103F6000401C814202D941481930D3E7E06810B9BA
:103F70004FF43470E0600821E068FFF784F8E060F7
:103F8000E068B0F5987F02D23848401EC2E7FCF7DF
:103F90007FF8834613E039484068A0F12805374987
:103FA0004868FFF7B3F905F128013548FFF792F9A2
:103FB0003448E9680068FFF70EFA0020E8602F48EF
:103FC000FFF7B6F90028E6D02D48FFF7B1F928B180
:103FD000DFF898A00AF10A0A00BF42E028484068CA
:103FE000A0F1280526494868FFF790F95846FCF7E4
:103FF00057F8D5F8108008222248E1680068FFF7DA
:10400000E0F906465EB9FCF743F8834605F128015E
:104010001B48FFF75FF9DFF870A000BF21E03246D0
:104020004046E1680DF066F98146C5F80090A06849
:104030002862EE60E068A8600020A861E8610220C4
:10404000A880A088E880206868614FF0FF30E863AE
:104050000020A8642069686200202865C7F80080F5
:1040600058E75846FCF71CF8504653E70702000291
:1040700025FE00088C7F0108887F01083406002097
:104080002C060020AC0600200002000330BCBDE876
:10409000C09F000070B504460BF0ECFE08B1184854
:1040A00070BD1848008808B11748F9E714B900F046
:1040B000EBF8F5E7FBF7ECFF05461449096801F159
:1040C00028000BF05FFF11480068808820F0040092
:1040D0000E49096888800D49086821460CF084FD66
:1040E0000A480068808840F02000084909688880F4
:1040F0002846FBF7D5FFFFF7FDFC0020D0E70000C6
:104100000D020003140600200E0200020C0600201F
:104110002DE9F04106464FF0FF37514800688642CE
:1041200002D15048BDE8F0814F480068864202D174
:104130004C480D30F6E74D480068864202D34948A6
:104140000D38EFE7FBF7A4FF8046C6EBC60000EB97
:1041500040004749096801EB8004A58805F001008B
:1041600018B1404F0A3F00BF75E005F0100028B1BC
:104170004048008810B100203E49088005F0040046
:1041800040B104F128000BF0FDFEA08820F00400EF
:10419000A08009E005F0080010B905F4005018B13E
:1041A00004F12800FFF7B2F805F0600010B12046D6
:1041B0000DF04EF8A08820F00200A080A08840F00A
:1041C0000100A0804FF0FF30E0630020A0640BF0FE
:1041D0005BFF283828494860207900F0100038B388
:1041E00004F128012548FFF7CFF820480068C0EB0C
:1041F000C00000EB40001E49096801EB80001E4929
:104200000860084600680661A088096888801A4925
:10421000E0680968C8601849606A09684862012056
:10422000A0804046FBF73CFF0CF00EF9002079E738
:104230000120A08004F128011148FFF74BF8114834
:10424000E1680068FFF7C7F80020E0604046FBF730
:1042500027FF002066E74046FBF722FF384661E76C
:104260001C06002014020002200600201806002070
:1042700008060020140600200C060020340600204A
:104280002C060020AC06002070B5002420480068F1
:10429000006920490968884201D31F4870BD1C4845
:1042A0000068007900F0040008B90020F6E7FBF789
:1042B000EFFE054616490968C8880BF0D1FE044692
:1042C000012C17D91249096801F12800FFF71EF8DF
:1042D0000F480068808840F004000D490968888014
:1042E0000B4A1268D1880A4A126802F128000BF0C2
:1042F0006FFE05E02846FBF7D3FE07480930CDE7FF
:104300002846FBF7CDFEFFF7F5FB0020C6E70000CF
:104310000C0600201806002007020002014903C90C
:10432000704700005006002000B587B01C481D49AA
:1043300008600020486000211A488160C160016166
:104340000421416100218161C161012101620021DB
:104350004162012181620021C16201634163816385
:10436000C163FCF77BFF18B14C210FA001F030F8BE
:104370001148019006200290002003907F200490B5
:10438000042005900020069001A90648FCF7D0FC07
:1043900018B1592104A001F01BF807B000BD0000BE
:1043A000000004503C0900202E2E2F5372632F6111
:1043B00064632E63000000000010603200B587B017
:1043C00000BF5F48C06C40F004005D49C864084607
:1043D000C06C00F00400019000BF00BF00BF0846A1
:1043E000C06C40F08000C8640846C06C00F08000DB
:1043F000019000BF00BF00BF0846C06C40F0010044
:10440000C8640846C06C00F00100019000BF00BF06
:1044100000BF0846C06C40F00200C8640846C06C8B
:1044200000F00200019000BF00BF0022202145489B
:10443000FDF77EF9002240214248FDF779F900227C
:1044400080214048FDF774F9012220214FF090406F
:10445000FDF76EF900224FF442613A48FDF768F922
:10446000202002900120039000200490059002A9D2
:104470003448FDF76FF8402002900120039000209F
:104480000490059002A92F48FDF764F8802002905F
:104490000120039000200490059002A92948FDF70F
:1044A00059F82020029001200390002004900590EC
:1044B00002A94FF09040FDF74DF80F2002902248DE
:1044C00003900120049002A92048FDF743F8402002
:1044D000029000200390049002A94FF09040FDF755
:1044E00039F84FF4426002900120039000200490BC
:1044F000059002A91348FDF72DF800221146062069
:10450000FDF746FA0620FDF736FA0022114607208D
:10451000FDF73EFA0720FDF72EFA0022114608208B
:10452000FDF736FA0820FDF726FA00221146092089
:10453000FDF72EFA0920FDF71EFA07B000BD0000B6
:10454000001002400004004800002110000800484C
:1045500010B51548154908601548486000211348F2
:1045600081600121C1600021016141618161C161FE
:104570000162FDF751F918B142210EA000F028FFA9
:1045800000210A48FDF7DDF818B1492109A000F023
:104590001FFF00210548FDF709F918B1502105A0BA
:1045A00000F016FF10BD000000540040F00800208D
:1045B000EC9C90102E2E2F5372632F6932632E6362
:1045C0000000000010B50E480E4908604FF4E130BD
:1045D000486000210B488160C16001610C2141618C
:1045E00000218161C16101620020064948620846DC
:1045F000FEF788F918B1462103A000F0E9FE10BDCE
:1046000000380140880700202E2E2F5372632F752B
:10461000736172742E63000002480068C0F30220C8
:10462000704700000CED00E010B5002807DA0A071B
:10463000140E054A00F00F031B1FD45403E00A07B1
:10464000130E024A135410BD18ED00E000E400E020
:1046500070B5002418E004F1B000002100F031F939
:104660000021084600F02DF90021102000F029F962
:10467000002505E00121002000F023F9681CC5B2E7
:10468000802DF7DB601CC4B2082CE4DB70BD10B5D4
:10469000C820FCF703FF0021AE2000F012F9002132
:1046A000402000F00EF90021B02000F00AF90021AE
:1046B000C82000F006F90021812000F002F9002155
:1046C000FF2000F0FEF80021A12000F0FAF8002100
:1046D000A62000F0F6F80021A82000F0F2F8002152
:1046E0001F2000F0EEF80021D32000F0EAF80021AE
:1046F000084600F0E6F80021D52000F0E2F800219D
:10470000F02000F0DEF80021D92000F0DAF80021D6
:10471000222000F0D6F80021DA2000F0D2F80021A3
:10472000022000F0CEF80021DB2000F0CAF80021C2
:10473000492000F0C6F800218D2000F0C2F80021C9
:10474000142000F0BEF80021AF2000F0BAF8FFF707
:104750007FFF10BD70B504460D4605F1B000002185
:1047600000F0AFF8102141EA1410002100F0A9F880
:1047700004F00F00002100F0A4F870BD2DE9F04115
:1047800080460E461546002731464046FFF7E2FFB9
:1047900000240AE0124A02EB8511085D012100F0B5
:1047A00090F8781CC7B2601CC4B2102CF2DB701CED
:1047B000C1B24046FFF7CEFF00240CE06900491C5F
:1047C000074A02EB4111085D012100F07AF8781CDC
:1047D000C7B2601CC4B2102CF0DBBDE8F081000051
:1047E0000C0400202DE9F04707460E4690469946F6
:1047F00000250024A8F12000C5B27F2F02DD00278C
:10480000B01CC6B2B9F1100F24D131463846FFF7BB
:10481000A1FF002408E004EB0511194A505C0121B6
:1048200000F04FF8601CC4B2082CF4DB701CC1B25D
:104830003846FFF78FFF002409E004EB051108312B
:104840000F4A505C012100F03CF8601CC4B2082CF7
:10485000F3DB12E031463846FFF77CFF00240AE024
:1048600005EB4501074A02EB4101085D012100F01B
:1048700028F8601CC4B2062CF2DBBDE8F08700000B
:10488000706B0108486901082DE9F04104460F46A4
:104890001546984600260FE0AA5D43463946204655
:1048A000FFF7A0FF04F10800C4B2782C02DD002459
:1048B000B81CC7B2701CC6B2A85D0028ECD1BDE818
:1048C000F08170B504460D461DB1E0B200F06AFDFE
:1048D00002E0E0B200F050FD70BD00002DE9F041B3
:1048E00004460E46002700255B48C06800F0030020
:1048F00090B15948C06800F003002168884209D18E
:10490000206838B15448C068C0F30210401C616888
:10491000884233D0012531E02068012804D00228E4
:1049200009D003281AD10DE04B48006800F00200BE
:1049300000B9012514E04848006800F4806000B91F
:1049400001250DE04448006800F4003028B94248D1
:10495000006800F4802000B9012501E0012500BFB6
:1049600000BF5DB9D4E90010401E41EA00103A4989
:10497000C96821F0730108433749C860002D67D129
:104980003548006820F0806033490860FCF7D5FEA8
:10499000074606E0FCF7D1FEC01B022801D903251B
:1049A00005E02D48006800F000600028F2D100BF4B
:1049B000C5BB66B9A0680002217B40EAC1602649F8
:1049C0000969264A114008432349086120E0012E65
:1049D0000FD1A0680002218A0122C2EB510140EAF6
:1049E00041501D4909691E4A114008431A4908618E
:1049F0000EE0A0680002217D0122C2EB510140EAD5
:104A0000416015490969174A114008431249086174
:104A10001148006840F080600F490860FCF78DFE87
:104A2000074607E014E0FCF788FEC01B022801D906
:104A3000032505E00848006800F000600028F2D077
:104A400000BF2DB904480069A16908430249086103
:104A50002846BDE8F081000000100240FF80FF07FB
:104A6000FF809FFFFF80FFF9F8B504460026002570
:104A70002348806D00F0805018B1FDF725F80646F8
:104A800016E000BF1E48806D40F080501C498865CC
:104A90000846806D00F08050009000BF00BFFDF719
:104AA00013F806461648806D20F08050144988653A
:104AB000B6F5007F07D1802C10D9A02C01D9022592
:104AC0000CE001250AE0802C01D9032506E0802CAA
:104AD00001D1022502E0702C00D1012509480068AF
:104AE00020F007002843074908600846006800F0E6
:104AF0000700A84201D00120F8BD0020FCE700001B
:104B0000001002400020024010B5FEF78BF947204C
:104B1000FEF744F900BFFEF7E5F90028FBD10024B9
:104B20000EE0032C05D10020FEF7FEF808490855D9
:104B300004E00120FEF7F8F805490855601CC4B2EE
:104B4000032CEEDBFEF79EF90520FFF7A3FA10BD5C
:104B50009005002010B50120FBF77BFF1020FBF72C
:104B600078FF10BD00B5AFB000BF3148006E40F017
:104B700001002F4908660846006E00F00100019010
:104B800000BF00BF00BF0846806D40F080508865C0
:104B90000846806D00F08050019000BF00BF0120EA
:104BA0001E9000041F900220289003211EA8C162BD
:104BB0000121016310214163072181630221C16347
:104BC0000164FDF7E7FA18B156211AA000F000FCC5
:104BD0000F20199003201A9000201B901C901D900C
:104BE000042119A8FDF73CF918B1642111A000F0C7
:104BF000EFFB44F24700029000200A900B900C90CB
:104C00000E904FF04050169002A8FCF765FF18B1C7
:104C1000712108A000F0DCFB4FF40070FCF70EFFE0
:104C200018B1782103A000F0D3FB2FB000BD000025
:104C3000001002402E2E5C5372635C7379735F69BF
:104C40006E69742E630000001048006840F4700024
:104C50000E4908600E48006840F001000C490860E9
:104C600000208860084600680A4908400849086032
:104C70008814C8600846006820F48020086000207E
:104C80008861C803014980390860704788ED00E0F9
:104C900000100240FFFFF6EA90F8241001F0010135
:104CA00039B10168496821F40031826A1143026810
:104CB000516090F8241001F00201022907D1016827
:104CC000496821F48031C26A11430268516090F84A
:104CD000241001F00401042907D10168496821F476
:104CE0008021026B11430268516090F8241001F09A
:104CF0000801082907D10168496821F40041426B85
:104D000011430268516090F8241001F0100110293D
:104D100007D10168896821F48051826B11430268D0
:104D2000916090F8241001F02001202907D101683A
:104D3000896821F40051C26B11430268916090F8B8
:104D4000241001F04001402913D10168496821F481
:104D50008011026C114302685160016CB1F5801F33
:104D600007D10168496821F4C001426C114302680F
:104D7000516090F8241001F08001802907D101686A
:104D8000496821F40021826C114302685160704728
:104D900038B50446002500206067FCF7CEFC0546C8
:104DA0002068006800F0080008280CD16FF07E40F1
:104DB0002B4600224FF400110090204600F06EFABE
:104DC00008B1032038BD2068006800F00400042802
:104DD0000CD16FF07E402B4600224FF480010090F2
:104DE000204600F05BFA08B10320EBE7202084F8AE
:104DF000710084F8720000BF002084F8700000BFCA
:104E000000BFDFE710B504462068006820F04000CE
:104E10002168086094F87100232803D1222084F8C7
:104E2000710002E0202084F871002046FDF7ACFEFE
:104E3000002010BD2DE9F05F044600251026A9468C
:104E4000AA46AB46EE492068884200D100E000BF88
:104E50002169A068084361690843E16940EA0105E6
:104E600020680068E74908402843216808602068F6
:104E7000406820F44050E168084321684860A56913
:104E8000DF492068884201D0206A05432068806895
:104E900020F4306028432168886000BFDA49206828
:104EA000884216D1D948006800F0030030B10128CB
:104EB00008D0022804D0032808D105E0012607E025
:104EC000022605E0042603E0082601E0102600BFC4
:104ED00053E0CF492068884216D1CC48006800F0E2
:104EE0000C0030B1042808D0082804D00C2808D1C0
:104EF00005E0002607E0022605E0042603E0082678
:104F000001E0102600BF38E0C2492068884216D16F
:104F1000BE48006800F0300030B1102808D02028CA
:104F200004D0302808D105E0002607E0022605E07D
:104F3000042603E0082601E0102600BF1DE0B0496A
:104F40002068884219D1B148006800F4406048B137
:104F5000B0F5806F0AD0B0F5006F05D0B0F5406FA6
:104F600008D105E0002607E0022605E0042603E05C
:104F7000082601E0102600BF00BF00BFA04920683E
:104F8000884271D10025042E0FD003DC3EB1022EE1
:104F900012D108E0082E0CD0102E0DD10DE0FDF737
:104FA00053F805460CE09C4D0AE0FDF76DF8054608
:104FB00006E04FF4004503E000BF4FF0010B00BFD7
:104FC00000BF002D0AD0606800EB4000A84203D863
:104FD00060680003A84202D24FF0010B0CE1042EDE
:104FE0002ED003DC3EB1022E51D118E0082E3CD069
:104FF000102E4CD14CE0FDF727F84FF48071A0FB48
:105000000130616849085F1840F10001D4F804C01C
:10501000624600233846FBF790F805463BE0D4F89B
:1050200004C04FEA5C0000217C4BC71841EB01082B
:1050300062460B4638464146FBF77FF805462AE0B4
:10504000FDF722F84FF48071A0FB01306168490838
:105050005F1840F10001D4F804C0624600233846CE
:10506000FBF76BF8054616E022E0D4F804C04FEADF
:105070005C0000214FF40003C71841EB01086246B1
:105080000B4638464146FBF758F8054603E000BF9B
:105090004FF0010B00BF00BFB5F5407F05D3B5F55C
:1050A000801F02D22068C560A6E04FF0010BA3E08C
:1050B000E069B0F5004F54D1042E2BD005DC4EB181
:1050C000012E12D0022E3BD11AE0082E2DD0102E28
:1050D00036D136E0FCF7B8FF4000616800EB5100C4
:1050E000B0FBF1F01FFA80FA2EE0FCF7BDFF4000A4
:1050F000616800EB5100B0FBF1F01FFA80FA23E089
:105100004749606801EB50006168B0FBF1F01FFA9D
:1051100080FA19E0FCF7B8FF4000616800EB51002D
:10512000B0FBF1F01FFA80FA0EE04FF480316068B6
:1051300001EB50006168B0FBF1F01FFA80FA03E068
:1051400000BF4FF0010B00BF00BF4FF6F0700AEA3E
:105150000009CAF3420049EA00092068C0F80C902F
:105160004AE0042E2CD005DC4EB1012E12D0022EC6
:105170003DD11AE0082E2ED0102E38D138E0FCF7A1
:1051800063FF616800EB5100B0FBF1F080B2216871
:10519000C86030E0FCF768FF616800EB5100B0FBCD
:1051A000F1F080B22168C86025E01B49606801EB1E
:1051B00050006168B0FBF1F080B22168C8601AE06D
:1051C000FCF762FF616800EB5100B0FBF1F080B2C8
:1051D0002168C8600FE04FF40041606801EB5000A7
:1051E0006168B0FBF1F080B22168C86003E000BFE5
:1051F0004FF0010B00BF00BF584600F013B800008D
:1052000000800040F369FFEF003801408810024041
:1052100000440040004800400024F400000024F452
:105220000048E80130BCBDE8C09F014691F871001C
:10523000212803D091F8710023282DD1B1F8520014
:1052400068B90868006820F080000B68186008687A
:10525000006840F040000B681860002070478868C4
:10526000B0F5805F0BD1086948B9CA6C1088C0F3EB
:1052700008000B681885C86C801CC86405E0CB6CFE
:10528000581CC86418780B681885B1F85200401E85
:10529000A1F852000020E1E70220DFE72DE9F0410C
:1052A00004460D4617469846069E21E0701CF8B14C
:1052B0002EB1FCF742FAA0EB0800B04218D92068E2
:1052C000006820F4D070216808602068806820F0B1
:1052D000010021688860202084F8710084F8720041
:1052E00000BF002084F8700000BF0320BDE8F081FB
:1052F0002068C0692840A84201D1012000E00020B8
:10530000B842D3D00020F1E710B5022005F09AFC96
:1053100010BD00002DE9F04105462C4600224FF457
:1053200080611448FCF704FA00261FE0274607F0C6
:105330008007802F05D10122D1020E48FCF7F8F931
:1053400005E000224FF400610A48FCF7F1F960061D
:10535000040E012291020748FCF7EAF900224FF4FB
:1053600080610448FCF7E4F9701CC6B2082EDDDB4E
:10537000BDE8F0810004004810B50446FDF7ECFDDF
:105380007820FFF7C7FFFDF715FE0020FFF7C2FFEB
:10539000FDF710FE2046FFF7BDFFFDF70BFEFDF702
:1053A000F5FD10BD10B50446FDF7D6FD7820FFF7DA
:1053B000B1FFFDF7FFFD4020FFF7ACFFFDF7FAFD61
:1053C0002046FFF7A7FFFDF7F5FDFDF7DFFD10BD58
:1053D00000BFFEE70FB4024610B504A9034B0398C3
:1053E00000F08CF910BC5DF814FB00003DA400082F
:1053F0000FB4054B10B503A9044A029800F07EF9DA
:1054000010BC5DF814FB00003DA4000878070020E4
:105410000FB41CB50246002007AC00290BD0491E72
:10542000CDE90021054B6A462146069800F066F951
:10543000009A002111701CBC5DF814FB315E00085D
:105440000FB4084B10B504A902AA039800F056F94E
:10545000044602A9002000F0F6FC204610BC5DF8CE
:1054600014FB0000475E00087CB5044600201D4682
:10547000164600290BD0491ECDE90041044B6A466F
:105480002946304600F03AF9009A002111707CBD9F
:10549000315E000810B5002821D0114B0022001FFA
:1054A000196803E0814203D80A4649680029F9D106
:1054B00052B11368841A9C4204D1006818441060E9
:1054C000104602E0506000E0186039B102680B1A23
:1054D000934203D10B681A4402604968416010BDD1
:1054E00080070020F0B50B30154D20F00701002497
:1054F000144A0FE003688B420BD38B4205D95E1A26
:1055000043184768C3E9006700E04368136002C0BE
:1055100004E0021D10680028ECD12046002802D1CA
:10552000286808B10020F0BD064A07481060074A05
:10553000121A22F00702C0E9002401202860D7E7F0
:10554000840700208007002004FC002000000120C8
:1055500002E008C8121F08C1002AFAD1704770473C
:10556000002001E001C1121F002AFBD1704700009A
:105570002DE9FF5F82B00021DDE90430020DDDF886
:1055800040B0034318D044F61050A2F2FF32424319
:105590001514119801281FD0A5EB0B00401C5FEAE1
:1055A000000A4FF000064E4FDFF83891B0465046E3
:1055B00015D5CAF1000413E0119801244AA301286B
:1055C00001D16FEA0B010298119AC0E90031C0E9DC
:1055D000024206B000F08EB8CBF10000DFE70446CF
:1055E0000021404A491842EB0450CDE9001012E076
:1055F000E00707D032463B4640464946FAF755FF9A
:105600008046894632463B4610461946FAF74DFF1A
:1056100006460F466410002CEAD1DDE90401DDE9FD
:105620000023BAF1000F06DAFAF73FFF42464B4675
:10563000FAF73BFF05E0FAF7ADFF42464B46FAF7B3
:10564000A9FF04460E460022284BFBF7C5F803D8F5
:105650004FF0FF30014607E00022254B204631463F
:10566000FAF774FEFBF775F8102409E0002C0ADB4A
:105670000A220023FAF761FD039B30321A55641E9B
:1056800050EA0102F2D1641C039AC4F111031444DC
:10569000119A012A03D0012208430DD10AE00843E0
:1056A00004D000204FF0110B119072E7A3EB0B0513
:1056B0006D1E0DE05B4504DD4FF0000205F10105B4
:1056C00004E003DA4FF00002A5F10105002AECD056
:1056D00002981199C0E90231C0E9004579E700005C
:1056E000000014400000F03F300000000000F043D4
:1056F0000000E03F30BCBDE8C09F00002DE9FF4F37
:1057000095B09B468946064600250FE2252877D1AD
:1057100000242746F84A0121059400E0044316F8C6
:10572000013F203B01FA03F01042F7D130782A28DC
:1057300011D06FF02F033078A0F13002092A16D86B
:10574000059A44F0020402EB820203EB4202104489
:10575000761C0590EFE759F8042B0592002A03DA2E
:10576000504244F40054059044F00204761C307812
:105770002E2816D116F8010F44F004042A280DD063
:105780006FF02F023078A0F13003092B09D807EB16
:10579000870302EB4303C718761CF3E759F8047B31
:1057A000761C30786C280FD006DC4C2817D068287F
:1057B0000DD06A2814D104E0742810D07A280FD1B3
:1057C0000DE044F400140AE044F4801401E044F4D1
:1057D00040147278824202D104F58014761C761C43
:1057E000307866280BD013DC582877D009DC0028E5
:1057F00075D04528F6D04628F4D047281AD19DE127
:1058000018E0632835D0642879D0652812D195E155
:10581000702873D008DC6728F1D069286FD06E2813
:105820000DD06F2806D1B5E073282CD0752875D01F
:10583000782874D05A46179990476D1C75E1C4F3C7
:105840000250022809D003280DD0D9F800100428EE
:105850000DD00D6009F1040967E1D9F80010EA17CD
:10586000C1E90052F6E7D9F800100D80F2E70D709B
:10587000F0E719F8041B8DF8001000208DF80100E6
:10588000EA46012003E059F804AB4FF0FF3061070E
:105890004FF0000102D40DE008F101018846B94241
:1058A0000FDA8045F8DB1AF808100029F4D108E077
:1058B00008F1010188468142FADB1AF80810002934
:1058C000F6D105985B46A0EB080721463846179AA3
:1058D00000F097FA284400EB080507E04DE029E1C5
:1058E0000DE01AF8010B5A4617999047B8F10108D4
:1058F000F7D25B4621463846179A13E142E00A2266
:105900000092C4F302524FF0000A022A08D059F85C
:1059100004CB032A4FEAEC710AD00DE029E02AE01B
:1059200009F1070121F00702F2E802C1914609E0FE
:105930000FFA8CFC4FEAEC71042A03D14FFA8CFC6D
:105940004FEAEC71002907DA0A460021DCF1000C6D
:1059500061EB02012D2202E0220504D52B228DF8F5
:105960000420012203E0E20701D02022F7E790465D
:1059700059E00A2102E010220DE010214FF0000A48
:1059800000910BE010224FF0000A44F004040827B5
:10599000009203E008224FF0000A0092C4F3025282
:1059A000022A05D059F804CB0021032A08D009E0C7
:1059B00009F1070121F00702F2E802C1914605E072
:1059C0001FFA8CFC042A01D10CF0FF0C4FF00008E8
:1059D000220728D5702806D0009B83F0100353EAD5
:1059E0000A0305D00EE040228DF80420012208E0D1
:1059F0005CEA010206D030228DF804208DF8050003
:105A000002229046009B83F0080353EA0A030AD15E
:105A10005CEA010201D1620705D530228DF804202D
:105A20004FF001087F1E582804D034A003900EA820
:105A300002900DE036A0F9E753466046009AFAF767
:105A40007CFB84460398825C0298401E02900270A0
:105A50005CEA0100F0D1029806A9081A00F1200AB8
:105A6000600702D524F4803400E00127574502DDA9
:105A7000A7EB0A0000E0002000EB0A010090059867
:105A80004144401A0590E00306D45B462146179A2C
:105A9000059800F0B6F90544002706E001A85A462B
:105AA000C05D179990476D1C7F1C4745F6DBE003EE
:105AB0000CD55B462146179A059800F0A2F90544DB
:105AC00004E030205A46179990476D1C0099481EF3
:105AD00000900029F5DC08E0029802995A46007807
