:020000040800F2
:10000000180B0020A101000819260008931F000802
:1000100069210008AF0A0008A92D000800000000AF
:10002000000000000000000000000000E9270008B8
:10003000C90C0008000000003B260008EB27000860
:10004000BB010008BB010008BB010008BB010008A0
:10005000BB010008692700088D0D0008930D0008FA
:10006000990D00089F0D0008BB010008BB010008A6
:10007000BB010008BB010008BB010008BB01000870
:10008000BB010008BB010008BB010008BB01000860
:10009000BB010008BB010008BB010008BB01000850
:1000A000BB010008BB010008BB010008BB01000840
:1000B000BB0100080000000000000000BB010008B8
:1000C000BB010008BB010008BB010008BB01000820
:1000D000BB010008912D00089D2D0008BB01000800
:1000E000BB010008BB010008000000000000000088
:1000F0000000000000000000000000000000000000
:1001000000000000BB01000800000000BB01000867
:100110000000000000000000BB010008BB01000857
:10012000BB010008BB010008BB010008BB010008BF
:10013000BB010008000000000000000000000000FB
:10014000BB010008BB010008BB0100080000000063
:10015000BB010008BB010008BB010008BB0100088F
:10016000BB010008BB010008BB0100080000000043
:10017000BB010008BB0100080000000000000000F7
:10018000BB010008BB010008BB010008DFF80CD070
:1001900000F01CFC00480047C9450008180B00206F
:1001A0000648804706480047FEE7FEE7FEE7FEE711
:1001B000FEE7FEE7FEE7FEE7FEE7FEE7852800082C
:1001C0008D0100082DE9F05F0546002092469B4610
:1001D00088460646814640241BE02846414647465D
:1001E000224600F061FA53465A46C01A914110D394
:1001F00011461846224600F048FA2D1A67EB01080E
:100200004F4622460120002100F03FFA17EB00097B
:100210004E41201EA4F10104DFDC484631462A4647
:10022000434600F000B830BCBDE8C09F40EA01037F
:100230009B0703D009E008C9121F08C0042AFAD29C
:1002400003E011F8013B00F8013B521EF9D2704760
:10025000D2B201E000F8012B491EFBD27047002208
:10026000F6E710B513460A4604461946FFF7F0FFB5
:10027000204610BD421E12F8013F002BFBD111F8A1
:10028000013B02F8013B002BF9D1704730B5054620
:100290002A460B4612F8010B13F8014B08B1A04295
:1002A000F8D01CB1002802D06D1CF1E7284630BD03
:1002B000421C10F8011B0029FBD1801A7047000076
:1002C00070B50F4D00B92868002412E00A4602E01C
:1002D0009E4203D0521C1378002BF9D1DAB222438C
:1002E00005D02BB124B1002100F8011B04E0044625
:1002F000401C0678002EE9D12860204670BD000021
:10030000100000202DE9F04791460F468046044634
:10031000002614F8015B2DB100F0E8F90068405D9B
:10032000C007F6D12B2D02D02D2D18D0641E4A46C1
:100330003946204600F0DEF927B13968A14201D1E3
:10034000C7F8008071054FF002040BD54042002829
:1003500003DD02F067FD0460A007BDE8F08746F406
:100360008066E4E70028F8DA02F05CFD04606FF0D4
:100370000040F2E770B5064602F054FD04680546F9
:100380000A2200213046FFF7BDFF2C6070BD2DE929
:10039000FE4F804681EA0300C00F0C46009021F01A
:1003A000004123F00045B8EB0200A94105D24046C8
:1003B000214690461C460B46024623F0004010435F
:1003C00047D0270DC7F30A00C3F30A510290401A21
:1003D000019040286BDAC3F3130040F4801B0098AF
:1003E000924620B10023D2EB030A63EB0B0B01987A
:1003F0005946C0F14002504600F047F906460D4606
:1004000050465946019A00F05FF910EB080061412F
:10041000002487EA115284EAE7731A4340D0009A15
:1004200062B3019A012A4FEA075215DC001B61EB07
:1004300002014FF0004202EA0752CDE90042001CDF
:1004400041F5801132462B4600F0B5F903B000F0BB
:1004500045B840462146F9E7001B61EB0201001C4C
:1004600041F5801300185B412018A2F5001747EBF7
:10047000030140EAD570B6196D4111E06D084FEAED
:10048000360645EAC0754FEA0752001B61EB0201D0
:10049000001C41F5801149084FEA30000019514114
:1004A00032462B4603B000F01CB800F075B9009836
:1004B000012240000023D0EB020263EBE0730098BE
:1004C00021464FEAE074B8EB000061EB0401E9E774
:1004D00083F000435BE781F0004158E730BCBDE8A2
:1004E000C08F30BCBDE8C04FFFF7DFBF2DE9F04D36
:1004F00081EA030404F0004B21F0004514464FF05C
:10050000000A23F0004150EA050220D054EA01021B
:100510001DD0C5F30A570246C5F31303C1F31300F8
:10052000C1F30A5640F4801543F48013A7EB060884
:10053000101BD64608F2FD3873EB050002D308F114
:10054000010801E092185B41B8F1000F03DA0020C6
:100550000146BDE8F08D00204FF480110646844628
:100560000EE0171B73EB050705D3121B63EB0503A6
:1005700006434CEA010C49084FEA300092185B41EF
:1005800050EA0107EDD152EA030012D082EA0400DA
:1005900083EA0501084305D0101BAB4106D20122B6
:1005A000002306E000224FF0004302E06FF001025A
:1005B00053101AEB06004CEB085110EB0A0041EB0C
:1005C0000B01BDE8F04D00F0E7B80EB5C10F80EAB1
:1005D000E0700844CA07002140F233438DE80E0062
:1005E0000A460B4600F0E7F803B000BD0EB540F236
:1005F000334102910021CDE900110A460B4600F07B
:10060000DAF803B000BDC1F30A5210B5C1F313010B
:1006100040F2FF3341F480119A4201DA002010BD0C
:1006200040F233439A42A2F2334203DC524200F0DA
:100630003BF810BD904010BD00F0004230F000408B
:100640000AD0C10D01F56071C0F3160042EA0151F4
:10065000C20840071143704700200146704730B57B
:100660000B46014600202022012409E021FA02F570
:100670009D4205D303FA02F5491B04FA02F528440A
:10068000151EA2F10102F1DC30BD202A04DB203A64
:1006900000FA02F1002070479140C2F1200320FAD5
:1006A00003F3194390407047202A04DB203A21FAD3
:1006B00002F00021704721FA02F3D040C2F120027B
:1006C0009140084319467047202A06DBCB17203A91
:1006D00041FA02F043EAE07306E041FA02F3D04047
:1006E000C2F1200291400843194670470048704704
:1006F0003C4900082DE9F05F824600780027154646
:100700008B460AF10104B946302801D09DB113E0AF
:1007100014F8010B0127782803D0582801D045B1DF
:100720000AE00DB1102D07D10027102514F8010B98
:1007300002E0082500E00A250026B0460EE005FB91
:10074000080005FB06F1012701EB10461FFA80F8AF
:10075000B6F5803F00D3B94614F8010B294600F0E6
:1007600047F90028EBDABBF1000F05D00FB1641E8A
:1007700000E05446CBF80040B9F1000F06D002F07B
:1007800051FB02210160C81E00F003B848EA064090
:10079000FAE730BCBDE8C09F10B5141E73F1000429
:1007A00008DA401C41F1000192185B411A4301D163
:1007B00020F0010010BD2DE9F04D92469B4611B18D
:1007C000B1FA81F202E0B0FA80F220329046FFF7EF
:1007D0005CFF04460F4640EA0A0041EA0B0153461B
:1007E0005A46084313D0114653EA010019D0C8F104
:1007F00040025046FFF758FF05460E465046594600
:100800004246FFF742FF084305D0012004E020469E
:100810003946BDE8F08D0020054346EAE0762C43DA
:1008200037430A986305E40AA0EB08000022FD0A9A
:1008300044EA47540A3002D500200146E9E70105A1
:1008400010196941DDE9084500196941BDE8F04D1D
:10085000A2E72DE9FE4F81EA030404F0004421F0F1
:10086000004100944FF0000B23F0004350EA0104D4
:100870005ED052EA03045BD0C3F30A54C1F30A55B5
:100880002C44A4F2F3340194A0FB0254C1F31301ED
:1008900041F48011C3F3130343F4801301FB0244BA
:1008A00000FB034E840A970A44EA815447EA8357BF
:1008B000A4FB076802958D0A05FB07854FEA932C78
:1008C00004FB0C542705029D4FEA065847EA1637E9
:1008D000B5EB08056EEB070C870E920E47EA811701
:1008E00042EA8312A7FB0201B6EB0B0164EB0004A2
:1008F0002B0D43EA0C335E1844EB1C50DA4651468C
:10090000E7FB0201C5F313044FEA0B3343EA145328
:100910004FEA0432019C43EA0603A4F10C0402945A
:10092000009CCDE900B4FFF746FF03B000F003B828
:1009300000200146F9E730BCBDE8C08F70B521F05A
:10094000004303430CD0C1F30A550024D5EB040542
:1009500064EB0403D617AD1AB34102DB0020014655
:1009600070BD201841EB025170BDC1F30A52C1F3B2
:10097000130140F2FF3341F480119A4202DA002061
:100980000146704740F233439A42A2F2334202DCFE
:100990005242FFF789BEFFF778BE000030B5041E53
:1009A00071F1000404DB4FF00044404264EB0101AC
:1009B000141E73F1000405DB1C464FF00043524245
:1009C00063EB0403994208BF904230BD064C074DCB
:1009D00006E0E06840F0010394E80700984710340F
:1009E000AC42F6D3FFF7D6FB404900086049000847
:1009F0003A2800D2303820F02002412A01D3A2F157
:100A00003700884201D34FF0FF3070472DE9F04D99
:100A100000231A461B1A8A4103DB00200146BDE869
:100A2000F08DC1F30A52C1F3130141F480154FF068
:100A3000000BD10702D100186D41521E0027044659
:100A400040F2FF11384601EB620A3E4680460246FC
:100A500000204FF48011FFF727FEC2197141BB1827
:100A600046EB0100B4EB030C75EB000C04D3E41A65
:100A700065EB000517460E46241908F101006D418B
:100A800080463428E3DDF91946EB0600091BA8412E
:100A900003D24FF0FF32134601E0002213461BEB56
:100AA000070046EB0A51BDE8F04DFFF775BEFEE7C3
:100AB00030B500241BE0035D1D0903F00F03092D71
:100AC0000AD8092B05F130050AD800BF01F81450E7
:100AD00001EB4405303308E0092B05F13705F5D962
:100AE00001F8145001EB440537336B70641C9442D9
:100AF000E1D3002001F81400084630BD00EB80006F
:100B00004FF6FF7101EA400001E0401E80B200286C
:100B1000FBD17047094808B5C16C41F00101C164BF
:100B2000C06C00F00100009000F01AF80122BDE84E
:100B30000840D1024FF0904000F058BA0010024037
:100B400000B585B04FF400600090002001900120B6
:100B5000029069464FF0904000F07CF905B000BD6E
:100B600000B585B04FF40060009001200190022094
:100B7000039069464FF0904000F06CF905B000BD5D
:100B80002DE9F04100252C464FF400674FF09046C8
:100B90004FF001083946304600F023FA0028F9D01A
:100BA0003220FFF7ABFF3946304600F01AFA012831
:100BB0000BD0C4F1070108FA01F08543641CE4B2CC
:100BC000082CE7D32846BDE8F0813946304600F0CE
:100BD00008FA0128F9D0C4F1070108FA01F0C0B2FF
:100BE0000543EBE770B50446FFF7BAFF4FF4006525
:100BF0004FF0904600222946304600F0F7F91220C7
:100C000000F0F7F801222946304600F0EFF91E20E7
:100C1000FFF774FFFFF794FF2946304600F0E1F933
:100C2000F0BB2946304600F0DCF90028F9D029460F
:100C3000304600F0D6F90128F9D0FFF7A1FF207067
:100C4000FFF79EFF6070FFF79BFFA070FFF798FF14
:100C5000E070FFF795FF2071FFF782FF0122294620
:100C6000304600F0C3F92178627801EBC10000EB57
:100C7000011002EB800000EE100ADFED120AB8EE60
:100C8000400A80EE201A84ED021AA578E37805EB7D
:100C9000C50000EB051003EB800000EE100A00E039
:100CA0000EE0B8EE400A8818E918084480EE201AD1
:100CB000C0B284ED031A2179814201D1012070BDB7
:100CC000002070BD0000C842704700002DE9F047C9
:100CD0000446002088462DED048B064621460A2254
:100CE00004E000BFB1FBF2F1401CC0B20A29F9D206
:100CF000401CC5B238E0681EFFF767FC9FED1F9BE4
:100D00008946074649EC110BB0EE490AF0EE690A34
:100D100002F08EF8B0EE408AF0EE608A2046FFF7CF
:100D200065FC53EC182BFFF7E1FB9FED161B53EC12
:100D3000112BFFF72CFBFFF766FC08F8060049ECC7
:100D4000117BB0EE490AF0EE690A02F071F851EC3D
:100D5000100BFFF758FC80B2B4FBF0F16D1E00FBE6
:100D60001144761CEDB2F6B2002DC4D1002108F872
:100D700006104046BDEC048BBDE8F0870000000083
:100D8000000024400000000000004840012000F066
:100D900055B8022000F052B8042000F04FB80820E7
:100DA00000F04CB810B590F825100024022903D0AB
:100DB0000421C16301241AE001680A6822F00E02CE
:100DC0000A6001680A6822F001020A6090F8441083
:100DD000036C01F01C02012101FA02F25A6080F852
:100DE0002510002180F82410816B01B1884720462E
:100DF00010BD70B5044600F0FFF80546601C00D039
:100E0000641C00F0F9F8401BA042FAD370BD00004A
:100E1000094901280DD0022809D0042805D0082846
:100E200001D0002006E0012004E0022002E00320BF
:100E300000E004200870704700000020044910B54D
:100E40000A68024202D00860FFF7E2FF10BD00000E
:100E5000140401402DE9F84FDFF864B100234FF08E
:100E6000010C4FF0030A4FF00F090BF1040EA0E044
:100E70000CFA03F6324072D04C68022C01D0122CCE
:100E80000ED1DC0800EB8408D8F820405D07EF0E97
:100E900009FA07F5AC430D69BD402543C8F8205059
:100EA00007685D0091F804800AFA05F408F0030869
:100EB000A74308FA05F848EA0708C0F800804F6819
:100EC000012F05D0022F03D0112F01D0122F11D1E5
:100ED0008768D1F80C80A74308FA05F848EA0708A4
:100EE000C0F808804768B7430E79C6F300169E40E5
:100EF0003E434660C668A6438C68AC403443C46039
:100F00004C68E40054D52F4C256E45F0010525664C
:100F1000246E23F0030504F0010400942A4C2E19DA
:100F2000B4689D072F0F09FA07F5AC43B0F1904F55
:100F300004D0264DA84203D1012512E0002510E07F
:100F4000234DA84201D102250BE0224DA84201D138
:100F5000032506E0204DA84202D1042501E027E048
:100F60000725BD402543B560DBF800405D464E686F
:100F70009443F60300D514432C60DEF80040754618
:100F80004E689443B60300D514432C600C4D0835CD
:100F90002C684E689443F60200D514432C60084D2B
:100FA0000C352C684E689443B60200D514432C606F
:100FB0005B1C0A6832FA03F47FF45AAF00F00EB8F3
:100FC00000040140001002400000014000040048FD
:100FD00000080048000C00480010004818BCBDE89C
:100FE000E08F0069084000D0012070470AB181619C
:100FF0007047816270470000014800687047000038
:101000000800002002480168491C01607047000088
:101010000800002010B50024032000F097F80020FD
:1010200000F008F808B1012401E000F01BF82046A8
:1010300010BD000070B5054609484FF47A710024D0
:101040000068B0FBF1F000F09EFD08B1012404E05F
:1010500000222946501E00F059F8204670BD0000BD
:101060000C000020224808B5016E41F00101016624
:10107000016E01F001010091816D41F080518165A7
:10108000806D00F080500090032000F05FF8002297
:1010900011466FF00B0000F039F8002211466FF096
:1010A0000A0000F033F8002211466FF0090000F04A
:1010B0002DF800221146501F00F028F8002211469A
:1010C000101F00F023F800221146901E00F01EF8B9
:1010D00000221146501E00F019F80022114605208A
:1010E00000F014F8BDE80840052000F003B8000047
:1010F0000010024000F01F020121914040098000D1
:1011000000F1E020C0F8001170470000F0B40E4B71
:101110001B680C46C3F30223C3F10705042D00D955
:101120000425191D072901D2002300E0DB1E01263A
:1011300006FA05F1491E214099409E40761E164050
:101140003143F0BC01F069BA0CED00E0064900F053
:10115000070208684FF6FF03184040EA0220034ADE
:1011600010430860704700000CED00E00000FA0535
:101170001649B0F5007F0868C0F3412009D0022865
:1011800005D0086820F4C06040F48060086000204A
:1011900070470128FBD0086820F4C06040F400705C
:1011A00008600B483222006850430A4AB0FBF2F054
:1011B000401C00E0401E4A69520501D50028F9D1C3
:1011C00048694005E3D503207047000000700040E7
:1011D0000C00002040420F000248006800F4C0608C
:1011E00070470000007000402DE9F84F04460027CA
:1011F0000088A84D3E46000515D5606C60B1B0F57D
:10120000000F04D0B0F5400F2BD001270AE0E868AA
:1012100040F48030E86024E00021201D01F00EFA47
:1012200007001ED03E46206880033AD5A86D4FF0D7
:101230000008C00009D4A86D40F08050A865A86DD2
:101240004FF0010800F080500090DFF84CA2DAF86F
:10125000001041F48071CAF80010FFF7CDFE8146FE
:1012600010E0D5F88800616C20F440000843C5F810
:101270008800D8E7FFF7C0FEA0EB0900022801D9DB
:10128000032705E0DAF80000C005F3D5002F7DD074
:101290004FEA0706B8F1000F03D0A86D20F0805088
:1012A000A8652078C00707D0D5F88800216A20F00B
:1012B00003000843C5F888002078800707D5D5F8D3
:1012C0008800616A20F00C000843C5F88800207887
:1012D000400707D5D5F88800A16A20F03000084300
:1012E000C5F888002078800607D5D5F88800E16A1F
:1012F00020F440600843C5F888002088800507D5A1
:10130000D5F88800E16B20F440200843C5F8880038
:101310002088400507D5D5F88800216C20F44010BE
:101320000843C5F888002078400607D5D5F888001E
:10133000216B20F440500843C5F88800207800064F
:1013400007D5D5F88800616B20F440400843C5F804
:1013500088002088C00507D5D5F88800A16B20F447
:1013600040300843C5F8880020684FF0006700034C
:101370004FF0806850D5D5F88800A16C20F040600F
:101380000843C5F88800A06CB84200E005E03BD1F6
:10139000E86840F48010E8603EE0D5F8900010F472
:1013A000407014D0A16D814211D0D5F89000D5F8CD
:1013B000901020F4407041F48031C5F89010D5F8B9
:1013C000901021F48031C5F89010C5F89000C00746
:1013D00011D0FFF711FE074641F2883907E000BF40
:1013E000FFF70AFEC11B494501D9032652E7D5F88C
:1013F00090008007F4D5D5F89000A16D20F44070DE
:101400000843C5F8900045E7404505D10121201D5E
:1014100001F014F900B106462068400317D5D5F84D
:101420008800E16C20F040600843C5F88800E06C5B
:10143000B84204D1E86840F48010E86007E0404515
:1014400005D10121201D01F0F9F800B106462088E0
:10145000400411D5D5F88800216D20F04050084394
:10146000C5F88800206DB0F1805F05D10221201DF4
:1014700001F0E4F800B106462088000406D555F8CE
:10148000880F616D20F0804008432860304600F0EE
:1014900005B80000001002400070004018BCBDE814
:1014A000E08F00002DE9F0470F46050058D03F4E71
:1014B000306800F00700B84209D2306820F0070019
:1014C00038433060306800F00700B84248D12878CF
:1014D000374CC0072CD06868032811D0022812D0DE
:1014E000216898B1490500293ADAA16821F0030181
:1014F0000143A160FFF780FD804641F2883910E08A
:1015000021688901EFE721688903ECE78907EAE7A9
:10151000FFF772FDA0EB0801494502D90320BDE8A1
:10152000F087A068696800F00C00B0EB810FEFD184
:101530002878800705D5A068A96820F0F000084346
:10154000A060306800F00700B8420BD9306820F086
:10155000070038433060306800F00700B84201D01F
:101560000120DCE72878400705D5A068E96820F469
:10157000E0600843A0602878000706D5A0682969C4
:1015800020F4605040EAC100A06000F041F8A1687A
:10159000084AC1F30311515C01F01F01C84006491C
:1015A0000860BDE8F0470020FFF744BD002002407E
:1015B00000100240E04700080C00002001480068CD
:1015C000704700000C000020054806490068896843
:1015D000054AC1F30221515C01F01F01C840704768
:1015E0000C00002000100240204800080548064971
:1015F00000688968054AC1F3C221515C01F01F01EE
:10160000C84070470C00002000100240204800082D
:1016100070B52549002318468A68CC6812F00C0280
:1016200004F00306214C4FEA640509D00C2A05D0CA
:10163000042A26D0082A00D1284670BD012E10D1D8
:101640000B681B0704D4D1F89430C3F3032302E0E2
:101650000B68C3F30313164E56F823307AB10C2AE5
:10166000EBD1C86800F00302C868C0F30210401C48
:10167000022A08D0032A09D0B3FBF0F008E018468C
:1016800070BD204670BDB4FBF0F001E0B5FBF0F09A
:10169000CA68C968C2F306225043C1F34161491CBC
:1016A0004900B0FBF1F070BD001002400024F400CE
:1016B000F04700082DE9F84305007CD0FD4CA068F8
:1016C00000F00C06E06800F003072878C00662D539
:1016D00076B10C2E01D1012F0AD0A869002820680C
:1016E00078D040F001002060FFF786FC804659E08A
:1016F0002068800702D5A8690028DED0296A206802
:10170000000703D5206800F0F00004E0D4F894004E
:10171000F02202EA1010814216D9084601F026F89C
:10172000002848D1206840F0080020602068296A1D
:1017300020F0F000084320606068E96920F47F40F1
:1017400040EA0120606015E0206840F00800206059
:101750002068296A20F0F000084320606068E96989
:1017600020F47F4040EA01206060286A00F0FEFF1C
:101770000028D6D1FFF74CFFA168CF4AC1F303116F
:10178000515C01F01F01C840CC4908600020FFF700
:1017900051FC00287ED12EE0FFF72EFCA0EB0800C4
:1017A000022878D820688007F6D5206840F0080025
:1017B0002060206801E0BBE00CE0296A20F0F00026
:1017C000084320606068E96920F47F4040EA012016
:1017D000606010E020F001002060FFF70DFC804603
:1017E00006E000BFFFF708FCA0EB08000228D8D8ED
:1017F00020688007F6D42878C00740D0082E18D07B
:101800000C2E01D1032F14D06868B0F5803F17D09B
:10181000B0F5A02F206817D020F480302060206819
:1018200020F4802020606868E0B1FFF7E5FB804687
:1018300014E02068800322D56868002878D01EE074
:10184000206840F48030EDE740F480202060F7E726
:10185000FFF7D2FBA0EB08006428A2D82068800321
:10186000F6D50CE0FFF7C8FB804605E0FFF7C4FBA8
:10187000A0EB0800642894D820688003F6D4287868
:1018800080073BD5042E11D00C2E01D1022F0DD094
:10189000E86801E05EE1B8E0002820681ED040F46E
:1018A00080702060FFF7A8FB07460CE02068400529
:1018B0000CD5E8680028C1D008E000BFFFF79CFB0A
:1018C000C01B022893D820684005F7D56068297CA2
:1018D00020F0F85040EA016060600FE020F4807072
:1018E0002060FFF789FB074605E000BFFFF784FB98
:1018F000C01B0228B1D820684005F7D4287800071B
:1019000029D568690028D4F8940012D040F001006D
:10191000C4F89400FFF770FB074604E0FFF76CFB88
:10192000C01B022871D8D4F894008007F6D512E0C5
:1019300017E120F00100C4F89400FFF75DFB0746B3
:1019400005E000BFFFF758FBC01B02285DD8D4F8A4
:1019500094008007F6D42878400766D5A06D00274C
:10196000C00008D4A06D40F08050A065A06D012794
:1019700000F08050009052480168C90512D40168F7
:10198000814641F480710160FFF736FB804605E037
:10199000FFF732FBA0EB0800022836D8D9F8000088
:1019A000C005F5D5A868012816D00528D4F8900000
:1019B00017D020F00100C4F89000D4F8900020F077
:1019C000040000BFC4F89000A86841F28839C0B193
:1019D000FFF712FB80460FE0D4F8900040F00100C2
:1019E000F0E740F00400C4F89000F5E7FFF704FBCF
:1019F000A0EB0801494508D8D4F890008007F5D538
:101A00000EE0FFF7F9FA804606E07CE0FFF7F4FA13
:101A1000A0EB0801494576D8D4F890008007F5D4AA
:101A20001FB1A06D20F08050A0652878800628D5D1
:101A3000686A0028D4F8980012D040F00100C4F879
:101A40009800FFF7D9FA074605E000BFFFF7D4FA80
:101A5000C01B02287DD8D4F898008007F6D510E086
:101A600020F00100C4F89800FFF7C6FA074604E02A
:101A7000FFF7C2FAC01B02286BD8D4F89800800781
:101A8000F6D4A86AF0B30C2E6BD00228206820F0A0
:101A90008070206018D02068000103D4E06820F036
:101AA0000300E060E06807490840E060FFF7A4FA3F
:101AB000054651E000100240E04700080C000020FD
:101AC00000700040FFFFEEFEFFF796FA064604E0C6
:101AD000FFF792FA801B02283BD820688001F7D4D8
:101AE000286B55F82C1F000110380843298A1E4A1C
:101AF000490802EB4151AA6841EA02210843297DC5
:101B0000490801E02BE024E04FF07E4202EB416106
:101B10000843297B40EAC160E060206840F08070A3
:101B20002060E06840F08070E060FFF765FA0546ED
:101B300005E000BFFFF760FA401B022809D82068C3
:101B40008001F7D50BE000BFFFF756FA401B0228D3
:101B500002D90320BDE8F88320688001F4D4002076
:101B6000F8E70120F6E700000000E0FF4FF0E02179
:101B70000428086903D020F004000861704740F091
:101B80000400FAE7704710B5401EB0F1807F01D322
:101B9000012010BD4FF0E02460610F21601700F0BC
:101BA0003CFD0020A06107202061002010BD10B581
:101BB000FFF7E8FF10BD7047704700002DE9F041C6
:101BC00002680446D0691168936810F00F0F4FF057
:101BD00000055BD003F0010601F49077374369D02C
:101BE000C70707D0CF0505D501271762626F42F0FE
:101BF00001026267820708D5DA0706D02768022249
:101C00003A62626F42F004026267420708D5DA075F
:101C100006D0236804221A62626F42F002026267F1
:101C200002070AD501F02002324306D023680822B9
:101C30001A62626F42F008026267626F002A32D055
:101C4000800605D5880603D5216E09B12046884750
:101C5000606F000703D420688068400625D52046C1
:101C600000F0CEFE20688168490619D5816821F010
:101C700040018160E06E98B120498163E06EFFF71A
:101C800091F800280FD0E06E816B06E0860611D532
:101C90008E060FD5216E1EE02046BDE8F0410847B4
:101CA0002046FFF789FFBDE8F0812046FFF784FF5B
:101CB0006567F8E7C60209D55B0207D54FF48010C7
:101CC00010622046BDE8F041FFF775BF030605D559
:101CD0000B0603D5616E0029DED1E4E74006E2D5AC
:101CE0004806E0D51168204621F04001116020210E
:101CF00084F87110656600F04BF9D4E7ED2900080F
:101D000010B5040003D094F8710010B107E0012071
:101D100010BD002084F87000204600F027F8242031
:101D200084F871002068016821F0010101602046FB
:101D300000F0D2FE0128EBD0606A10B1204600F01E
:101D4000C3FD2068416821F49041416020688168AA
:101D500021F02A0181602068016841F001010160E1
:101D60002046BDE8104000F013BE0000F0B5214F42
:101D700006680022204902230324072587B04FF07C
:101D80009040BE4217D10E6E46F480460E66096E34
:101D900002AE01F4804105916102CDE9001386E8AD
:101DA00034006946FFF756F8002211462520FFF758
:101DB000ADF9252019E0114FBE4218D18E6D46F4C1
:101DC00000368E65896D02AE01F4003105910C215B
:101DD000CDE9001386E834006946FFF73BF800229E
:101DE00011462620FFF792F92620FFF783F907B066
:101DF000F0BD0000003801400010024000440040E7
:101E000030B590F87230202B4AD1B1B1AAB190F818
:101E10007030012B44D0012380F870304165A0F868
:101E20005820A0F85A20002202661D038168FF2373
:101E3000A94207D1016911B10CE0012030BD40F287
:101E4000FF110DE07F2419B1B1F1805F05D009E0E9
:101E5000016901BBA0F85C3004E00169D9B13F2100
:101E6000A0F85C104267222180F8721001688B682C
:101E700043F001038B608168A94201D1016969B116
:101E80000849016680F870200068016841F490718B
:101E90000160002030BDA0F85C40E3E70249F0E7B4
:101EA000022030BD7D2A0008212A00080068084968
:101EB000884208D10748014602784888064B034407
:101EC000401C48801A70012202490448FFF798BF5D
:101ED0000044004002000020240200209C04002056
:101EE0002DE9F843044690F871001F4616460D464A
:101EF00020284BD1C5B1BEB194F87000012845D05F
:101F0000012084F870004FF00008C4F8748021208C
:101F100084F87100FFF770F8A4F850608146A4F8C7
:101F200052604FF4805615E00120BDE8F88380210F
:101F3000204600F0FBFED8B9A068B04201D120696C
:101F4000C0B115F8010B21680885B4F85200401E95
:101F5000A4F85200B4F852004B464FF0000200972C
:101F60000028E4D14FF04001204600F0DFFE30B100
:101F70000320DAE735F8020BC0F30800E3E720207E
:101F800084F8710084F870800020CEE70220CCE74E
:101F90007047FEE710B51B4C08212046FFF721F8DB
:101FA00070B104212046FFF71CF848B102212046F9
:101FB000FFF717F820B101212046FFF712F8B0B95A
:101FC0000A20FEF716FF08212046FFF70AF880B125
:101FD00004212046FFF705F868B102212046FFF7EB
:101FE00000F850B101212046FEF7FBFF38B1002078
:101FF00010BD012010BD022010BD032010BD042023
:1020000010BD00000008004870B52C4886B0C16CB7
:1020100041F00401C164C16C01F004010591C16C7F
:1020200041F00101C164C06C254E00F001004FF485
:1020300000540590002221463046FEF7D7FF009459
:1020400001240025CDE90145694630460395FEF798
:1020500001FF0F2000901B48CDE90104694630467E
:10206000FEF7F8FEE002CDE90005694602944FF064
:102070009040FEF7EFFE002211460620FFF746F8DB
:102080000620FFF737F8002211460720FFF73EF839
:102090000720FFF72FF8002211460820FFF736F837
:1020A0000820FFF727F8002211460920FFF72EF835
:1020B0000920FFF71FF806B070BD000000100240B5
:1020C00000080048000021100E4810B50C490160BE
:1020D0004FF416514160002181600C22C160C0E9BB
:1020E00004128161C16101624162FFF709FE0028AB
:1020F00005D0BDE81040512103A000F056BE10BD30
:1021000000380140240400202E2E2F5372632F75B7
:10211000736172742E6300000E4810B50C490160A3
:102120004FF416514160002181600C22C160C0E96A
:1021300004128161C16101624162FFF7E1FD002883
:1021400005D0BDE81040662103A000F02EBE10BDF2
:10215000004400409C0400202E2E2F5372632F75E4
:10216000736172742E630000FEE7000010B54FF437
:102170007A74012322461EA11EA000F087F90123D4
:1021800022461BA11EA000F081F90123224618A1BE
:102190001EA000F07BF90123224615A11EA000F02D
:1021A00075F90123224620A122A000F06FF9012336
:1021B00022460FA122A000F069F90123224623A1A3
:1021C00027A000F063F90123224609A127A000F00F
:1021D0005DF90123224629A12BA000F057F92246E0
:1021E000BDE81040012302A12AA000F04FB9000071
:1021F0004F4B000041542B4346554E3F0D0A000003
:1022000041542B4347534E3D310D0A0041542B435B
:10221000494D490D0A00000041542B434741545495
:102220003D310D0A000000002B43474154543A3120
:102230000000000041542B43474154543F0D0A0015
:1022400041542B4353510D0A000000002B434F50C3
:10225000533A302C322C22343630313122000000F7
:1022600041542B434F50533F0D0A000041542B4320
:10227000455245473D310D0A000000002B434552B1
:1022800045473A312C31000041542B4345524547D4
:102290003F0D0A0041542B4E4E4D493D310D0A0071
:1022A0002DE9F041804686B051A15348FDF7EEFF7D
:1022B000524C06004FF4FA774FF0000514D0384620
:1022C000FEF797FDB01DFEF755F8C6B24A494CA07F
:1022D00000F06CFD4FA14848FDF7D8FF411C72008B
:1022E0004046FDF7A3FF76E04BA14348FDF7CEFF44
:1022F00006007AD03846FEF77CFD14216846FDF7CB
:10230000AEFF3D493EA000F051FD46A16846FDF7F5
:10231000B1FF06F10A00FEF72DF82080218844A0C5
:1023200000F044FD2088400002F0ECF921884900CB
:10233000FDF795FF6846FDF7BBFF6946014420881D
:10234000FEF7C4FC41A16846FDF794FF2A48FDF75B
:10235000AFFF01462848FDF782FF25806846FDF75C
:10236000A7FF82B24FF47A7369463948FFF7B8FD88
:1023700038A12148FDF78AFF0028F9D1C820FEF7CF
:1023800038FD1D4935A000F011FD22A11A48FDF7C6
:1023900097FF20A10020FDF793FF1EA10020FDF76D
:1023A0008FFF1CA10020FDF78BFF1AA10020FDF775
:1023B00087FF18A10020FDF783FF064601462DA0E8
:1023C00000F0F4FC2088314642004046FDF72EFF25
:1023D000304602F0D1F821880748FDF740FF2580FC
:1023E000012006B0BDE8F081FFE70020F9E700001A
:1023F0002B4E4E4D493A00002402002004000020DC
:102400004E45542D2D3E3E4E423A202573200D0A56
:10241000000000002C0000002B4E534F4E4D493A57
:102420003000000041542B4E534F52463D302C009B
:102430005553415254325F52585F4255465F4C45A6
:102440004E3A202564200D0A000000000D0A00000D
:102450009C0400202C353638332C00004E4220449A
:1024600041544120524543454956453A2025732061
:102470000D0A00004E42204D7367205245434549E6
:1024800056453A202573200D0A0000002DE9F0473B
:1024900080461C46174689461C48FDF709FF014641
:1024A0001A48FDF7DCFE1CB1414619A000F07EFC85
:1024B0004046FDF7FDFE82B23B4641461848FFF715
:1024C0000FFD4FF4FA70FEF794FC164D00264946B6
:1024D0000E48FDF7DBFE58B11CB10C4912A000F00C
:1024E00065FC3846FEF785FC30462E80BDE8F08757
:1024F0004046FDF7DDFE82B23B4641460848FFF705
:10250000EFFC2E803846FEF774FCE0E72402002042
:102510004D43552D2D3E3E4E423A2025730D0A0067
:102520009C040020040000204E422D2D3E3E4D43D1
:10253000553A2025730D0A0038B504464FF4007152
:102540001448FDF78CFE002000902046FDF7B0FEF9
:10255000C0F347006946FEF7B9FB0FA10D48FDF730
:1025600089FE69460B48FDF785FE0EA10948FDF777
:1025700081FE21460748FDF77DFE0BA10548FDF7CA
:1025800079FE01234FF47A7208A10248FFF77EFF1B
:1025900038BD00002400002041542B4E4D47533DD0
:1025A000000000002C0000000D0A00004F4B00004E
:1025B00070B50D4604464FF400711048FDF74FFE0C
:1025C0000FA10E48FDF756FE21460C48FDF752FEBE
:1025D0000EA10A48FDF74EFE29460848FDF74AFEBF
:1025E0000BA10648FDF746FEBDE8704001234FF4FD
:1025F0007A7208A10148FFF749BF000024000020BB
:1026000041542B4E4344503D000000002C0000007C
:102610000D0A00004F4B000070470907090E002803
:1026200006DA00F00F0000F1E02080F8141D70477A
:1026300000F1E02080F80014704770472DE9F04168
:10264000444C05468846E0680026810728680DD07E
:10265000E16801F00301814216D1A8B1E068696820
:10266000C0F30210401C88420ED120E0012804D0A3
:10267000022805D0032807D108E02168890701E076
:1026800021684905002907DB01265FE021688903ED
:1026900002D421684903F5E7E1686A686FF00F0327
:1026A00021F0730103EB021211430143E160206842
:1026B00020F080602060FEF79FFC074605E000BF29
:1026C000FEF79AFCC01B022837D820680001F7D417
:1026D000B8F1000F18D0B8F1010F1DD0287D4FF0D0
:1026E0007E41400801EB4060A96840EA0120216971
:1026F000194A114008432061206840F08060206042
:10270000FEF77AFC07461AE0A868297B000240EA37
:10271000C1602169114AECE7288A1149400801EBA0
:102720004050A96840EA012021690E4AE1E700BF54
:10273000FEF762FCC01B022801D9032606E02068D0
:102740000001F5D52069A969084320613046BDE83C
:10275000F081000000100240FF80FFF9FF80FF07BA
:102760000000E0FFFF809FFF70470000F8B51C4DA0
:1027700006460024A86DC00002D5FEF72DFD0DE031
:10278000A86D40F08050A865A86D00F080500090C2
:10279000FEF722FDA96D21F08051A965B0F5007FFB
:1027A00004D0802E07D94FF003040AE0802E08D908
:1027B000A02E01D804E001D1022402E0702E00D145
:1027C00001240848016821F00701214301600068E5
:1027D00000F00700A04201D00120F8BD0020F8BDA4
:1027E0000010024000200240704710B5FEF70AFCBE
:1027F000BDE81040FFF7DBB930B5ADB01020009058
:102800000120002460210690CDE907410221CDE995
:102810000A100C9028200D900720CDE90E01684683
:102820001091FEF747FF00B1FEE70F202890032527
:10283000CDE929542B94042128A82C94FEF732FECC
:1028400000B1FEE7199411A811951A94FEF7CCFC7B
:1028500000B1FEE74FF40070FEF78AFC00B1FEE71E
:10286000FEF7ACFE4FF47A71B0FBF1F0FFF78BF995
:102870000420FFF77BF900221146501EFEF746FCAC
:102880002DB030BD0D48016841F4700101600C4865
:10289000016841F001010160002181600268094B7B
:1028A0001A4002608214C260026822F48022026030
:1028B00081610249C00380390860704788ED00E0FB
:1028C00000100240FFFFF6EA90F82410C90706D076
:1028D00001684A68836A22F400321A434A6090F819
:1028E0002410890706D501684A68C36A22F4803239
:1028F0001A434A6090F82410490706D501684A68CF
:10290000036B22F480221A434A6090F824100907CE
:1029100006D501684A68436B22F400421A434A60B4
:1029200090F82410C90606D501688A68836B22F4E2
:1029300080521A438A6090F82410890606D50168EF
:102940008A68C36B22F400521A438A6090F82410FC
:10295000490611D501684A68036C22F480121A43B3
:102960004A60016CB1F5801F06D101684A68436C6A
:1029700022F4C0021A434A6090F82410090606D5D2
:1029800001684A68806C22F4002202434A60704762
:10299000F8B5002604464667FEF72EFB054620687C
:1029A00000686FF07E47000708D52B4600224FF4E1
:1029B00000112046009700F0B9F960B9206800685E
:1029C00040070AD52B4600224FF48001204600978D
:1029D00000F0ACF908B10320F8BD202084F87100A4
:1029E00084F8720084F870600020F8BD10B5806A29
:1029F0000021A0F85A10A0F85210FFF7DDF810BD22
:102A000001680A6822F490720A6001688A6822F0FC
:102A100001028A60202180F872100021016670474F
:102A200010B5B0F85C2090F872300168222B04D009
:102A3000088B40F00800088310BD898C436D11405D
:102A40001980416D891C4165B0F85A10491E09046E
:102A5000090CA0F85A10EFD101680A6822F49072AC
:102A60000A6001688A6822F001028A60202180F8E9
:102A7000721000210166FFF719FA10BD10B5B0F809
:102A80005C2090F872300168222B04D0088B40F053
:102A90000800088310BD898C1140426D531C4365AA
:102AA0001170B0F85A10491E0904090CA0F85A1008
:102AB000F0D101680A6822F490720A6001688A689D
:102AC00022F001028A60202180F872100021016644
:102AD000FFF7ECF910BD00002DE9F0410446016854
:102AE00080682369E669184363691025002733432A
:102AF0001843844A0B68844E334003430B602068BC
:102B00004168E36821F44051194341602168A0699C
:102B1000914201D0236A18438B6823F43063034346
:102B20008B607A4B21687A4899420DD1D0F88800A1
:102B300010F0030006D0012839D0022835D0032830
:102B400038D136E0012535E0724B99420BD1D0F8EF
:102B5000880010F00C0026D0042828D0082824D0A3
:102B60000C2827D125E06C4B99420BD1D0F8880076
:102B700010F0300017D0102819D0202815D0302898
:102B800018D116E0914215D1D0F8880010F44060B9
:102B900009D0B0F5806F0AD0B0F5006F05D0B0F560
:102BA000406F07D105E0002504E0022502E004257E
:102BB00000E00825594B00264FF4004091423DD1DA
:102BC00035B1022D07D0042D07D0082D10D107E014
:102BD000FEF7FAFC03E0184602E0FEF719FDA8B381
:102BE000626802EB4201814202D8B0EB023F01D998
:102BF000012774E0DFF828815DB1022D0CD0042D8F
:102C000013D0082DF4D150082905401846F10001D1
:102C100005E0FEF7D9FC0AE050084249F5E7002339
:102C2000FDF7D0FAA0F5407155E0FEF7F1FC6268BF
:102C3000010E0302500818187141F0E7E1694FF6E0
:102C4000EF7881422ED1092DD2D200E047E0DFE8B3
:102C500005F006091F05220505052500C8E7FEF752
:102C6000B3FC01E0FEF7C2FC4100606801EB5001DB
:102C7000B1FBF0F080B2A0F110014145B8D84FF699
:102C8000F0710140C0F3420001432068C16026E0BA
:102C900025496068EAE7FEF7BBFCE5E74FF48031C1
:102CA0006068E3E7092DA3D2DFE805F006091E05F9
:102CB0002205050525009BE7FEF786FC01E0FEF7EF
:102CC00095FC0146606801EB500100BFB1FBF0F0DC
:102CD00080B2A0F1100141458AD82168C8602666FB
:102CE00038466666BDE8F081606803EB5001EDE7A9
:102CF000FEF78EFCE5E7616800EB5100B0FBF1F0F8
:102D0000E6E7000000800040F369FFEF0038014073
:102D10000010024000440040004800400024F4003D
:102D2000FFFC0F00000024F40048E8012DE9F04109
:102D3000984617460E460446069D1DE0681C1BD0AB
:102D40002DB1FEF759F9A0EB0800A84214D920686C
:102D5000016821F4D07101602068816821F00101CF
:102D60008160202084F8710084F87200002084F8CB
:102D700070000320BDE8F0812068C06936EA0000D9
:102D800004D00020B842D9D00020F3E70120F9E7B1
:102D90000148FEF713BF0000240400200148FEF79D
:102DA0000DBF00009C040020FEE7FEE70FB4054BBA
:102DB00010B503A9044A029801F026F810BC5DF88A
:102DC00014FB000061450008140000200FB4084BFC
:102DD00010B504A902AA039801F016F8044602A946
:102DE000002001F0ABFB204610BC5DF814FB000096
:102DF0003D45000803B401984100009850EAC12005
:102E000018BF04204A0D18BF40F0010040F2FF72C5
:102E1000B2EB515F08BF40F00200012808BF052057
:102E200002B07047004870472000002000000000FA
:102E30002DE9F04D2DED040B2DED0E8B96B0DDE957
:102E40002550279CDDF890A025F0004624F000488E
:102E5000BAF1000F14BF0121002101EB4502FC492A
:102E600053184A1093422AD3002814BF0123002389
:102E700003EB44030B44F7498B4220D358EA00018B
:102E80009FEDF59B76D0DFF8D8B35D4503D1BAF15D
:102E9000000F05D188E0BAF1000F08BF002100D073
:102EA000012101EB450111F5001F08D8002814BFCE
:102EB0000121002101EB440111F5001F0BD99DED0B
:102EC000261B9DED240B16B000F0DABD04B0BDE862
:102ED000F04D00F081BE0027002DBCBFE1498845C0
:102EE00021DAE1498845A8BF02271CDAC3451ADC6C
:102EF000DE4901EB2851142908DDC1F1340220FA22
:102F000002F101FA02F282420DD108E058B9C1F192
:102F1000140228FA02F101FA02F2424503D101F04B
:102F20000101C1F1020756EA0A0124D1002C22DA7C
:102F3000002D18BF022F01D0012F0AD0022000F06F
:102F400097FE16B000F0A2BD04B0BDE8F04D00F051
:102F50002BBE022000F08CFE00F026FE51EC100B80
:102F600081F0004141EC100B16B000F095BD04B0AB
:102F7000BDE8F08D18E09FEDBEAB9FEDBF8B002844
:102F800071D1B848804522D105F1804010F58010FC
:102F900008BFBAF1000F07D0B3450ADC002CA8BF68
:102FA0009DED260BE0DA0DE0B0EE490AF0EE690A7D
:102FB000DAE7002C06DA9DED260B51EC100B81F0C0
:102FC00000416FE0AE48784490ED000BCCE7D84567
:102FD0004DD1002C48DA2EB186423AD1BAF1000F19
:102FE00042D126E0BAF1000F13D0022000F040FEDB
:102FF00000F00EFE8DED020B9DED240B8DED000B10
:1030000010EE900A039961F31E0003909DED020BF0
:10301000AAE78DED02AB9DED240B1AEE901A10EE8F
:10302000900A8DED000B61F31E0003909DED020BE5
:103030009AE78DED028B9DED240B18EE901A10EEA1
:10304000900A8DED000B61F31E0003909DED020BC5
:103050008AE709DA9DED240B51EC190B53EC102B88
:10306000FDF744FA1EE020E09DED240B7CE786424C
:103070001BDAB4F1804F0DD0A4F10050B0F1FF5035
:1030800013D1002D11DB9DED240B51EC100B01F041
:103090006FFB07E09DED240B53EC102B51EC100B54
:1030A00000F0C2BC41EC100B5EE79DED240B51EC2F
:1030B000100B01F048FABAF1000FCDE90E0142D130
:1030C0009FED710B46B3A6F1E040B0F17F600CD0EC
:1030D0005E4538D1002D00DAA7B3022F0CBF0120C6
:1030E0004FF0FF30FDF771FADCE7002D01DD002C19
:1030F0000DDA002D01DD002C1FDB002D16DA002C6F
:1031000014DB012F08BF9FED620B3FF42DAFB0EE33
:103110004A0AF0EE6A0A27E7022F18BF002D0CD0EA
:10312000012F0AD1002DFFF61FAF06E0002DB8BF1A
:10313000002C08DA012F3FF417AFB0EE480AF0EE8A
:10314000680A11E71BE0012000EBE57050EA070177
:1031500015D0791EB0EE498AF0EE698A084308BF9F
:103160009FED4D8B4E480025804570DD4D494E4802
:10317000884514DDB0420DDB002C19DB2FE0012067
:1031800000F076FD16B000F08DBC04B0BDE8F04D47
:1031900000F02EBDB34502DC002C09DC1FE08642A6
:1031A00002DA002C1BDA03E05E452BDD002C16DD75
:1031B000022000F05DFD00F02BFD8DED020B53ECC5
:1031C0001A2B51EC180BFDF744FBCDE900010399D4
:1031D000019861F31E0003909DED020BC4E60220EE
:1031E00000F046FD00F024FD10EE901A18EE900A53
:1031F0008DED020B8DED008B61F31E0003909DEDB4
:10320000020BB1E69DED0E0B53EC192B51EC100B9C
:10321000FDF75EF99FED260BCDE9080153EC102B6D
:103220009DED080B51EC100BFDF713FB9FED221BDE
:1032300053EC112BFDF74FF99DED081B53EC112BAF
:10324000FDF707FB9FED1E1B53EC112B3CE08CE0C0
:10325000FFFF1F00FFFF0F00000000000000F03F15
:103260000000F03F0000F07F0000404301FCFFFF42
:10327000000000000000F07F0000000000000000DF
:10328000E6180000000000000000000000000080C0
:10329000000000000000F0FF000000000000F0BF90
:1032A0000000E0410000F043FFFFEF3F000000009E
:1032B000000000000000D03F555555555555D53FED
:1032C000000000000000E03FFDF705F99DED080B50
:1032D00041EC1A0B53EC102B51EC100BFDF7B9FA23
:1032E00053EC1A2BFDF7B5FA41EC1A0B9FEDFE0BD0
:1032F00053EC102B9DED080B51EC100BFDF7A9FAC8
:1033000041EC1B0B9FEDFA0B51EC1A0B53EC102BFD
:10331000FDF79FFA41EC1A0B9FEDF70B53EC102BC6
:103320009DED080B51EC100BFDF793FA53EC1A2BA3
:10333000FDF7CEF841EC1A0B51EC1B0B53EC1A2B9A
:10334000FDF725F80690CDE906519DED060B53ECEF
:103350001B2B51EC100BFDF7BBF853EC1A2BFDF7B0
:10336000BAF841EC100B00F0A1B90020B6F5801FAF
:103370000EDA9FEDE30B53EC102B9DED0E0B51EC91
:10338000100BFDF766FACDE90E016FF034000E4622
:1033900000EB2650A0F2FF37C6F31300DA4940F0E5
:1033A0007F6646F040568842D8BF002408DDD749E2
:1033B0008142C8BF012403DC0024A6F580167F1CCF
:1033C000D348784400EBC4000F9690ED00CB9DED00
:1033D0000E0B53EC1C2B51EC100BFDF779F89DED07
:1033E0000E0B41EC1B0B53EC1C2B51EC100BFCF7A0
:1033F000CEFF41EC100B51EC190B53EC102BFDF7E9
:1034000075F841EC1D0B51EC1B0B53EC1D2BFDF71C
:1034100020FA41EC1A0BBF488DED10AB78441095A3
:1034200090ED000B4FF0005040EA660000EB844046
:103430008DED080B00F5002009909DED080B53EC75
:103440001C2B51EC100BFDF743F89DED0E1B53ECBC
:10345000112BFDF740F841EC100B53EC102B9DEDB8
:10346000100B51EC100BFDF7F4F99DED080B41EC3E
:103470001C0B53EC102B9DED100B51EC100BFDF7BA
:10348000E8F953EC1B2BFDF726F853EC1C2BFDF74A
:103490001FF853EC1D2BFDF7DCF941EC1C0B53EC32
:1034A0001A2B51EC1A0BFDF7D4F941EC1B0B9A487F
:1034B0000621B0EE4B0AF0EE6B0A784400F0F8FA01
:1034C000B0EE401AF0EE601AB0EE41DAF0EE61DADA
:1034D00053EC1B2B51EC1B0BFDF7BBF953EC1D2BD5
:1034E000FDF7B7F99DED100B41EC1B0B53EC1A2BBC
:1034F00051EC100BFCF74BFF53EC1C2BFDF7A9F91B
:1035000053EC1B2BFCF743FF9DED100B41EC1B0B09
:1035100053EC102B51EC100BFDF79BF941EC1D0BFC
:103520009FED7FEB53EC1E2BFCF731FF53EC1B2B75
:10353000FCF72DFF0890CDE908519DED080B53ECE9
:103540001E2B51EC100BFCF7C3FF53EC1D2BFCF7AB
:10355000BFFF53EC1B2BFCF7BEFF9DED080B41ECAE
:103560001D0B53EC102B9DED100B51EC100BFDF7C8
:1035700070F941EC1B0B53EC1A2B51EC1D0BFDF7B2
:1035800068F99DED080B41EC1A0B53EC102B51EC34
:103590001C0BFDF75EF953EC1A2BFCF7F8FE41EC1F
:1035A0001A0B51EC1B0B53EC1A2BFCF7F0FE0C9092
:1035B000CDE90C519DED0C0B53EC1B2B51EC100B7A
:1035C000FCF786FF53EC1A2BFCF785FF41EC1B0B35
:1035D0009FED550B53EC102B9DED0C0B51EC100B8C
:1035E000FDF737F941EC1A0B9FED510B51EC1B0B1A
:1035F00053EC102BFDF72DF941EC1B0B9FED4E0BFF
:1036000053EC102B9DED0C0B51EC100BFDF721F939
:1036100053EC1B2BFCF7BBFE41EC100B48487844E5
:1036200000EBC40090ED001B51EC100B53EC112B80
:10363000FCF7ADFE41EC1B0B3846FCF7C6FFCDE9AD
:10364000080153EC1B2B51EC1A0BFCF7A0FE41ECCC
:10365000100B3C48784400EBC40090ED00CB51ECDB
:10366000100B53EC1C2BFCF792FE9DED081B53EC4A
:10367000112BFCF78CFE0690CDE906519DED080B51
:1036800053EC102B9DED060B51EC100BFCF720FFBB
:1036900053EC1C2BFCF71CFF53EC1A2BFCF718FF08
:1036A00053EC1B2BFCF717FF41EC100B9DED261B79
:1036B00053EC102B8DED001B00959DED260B51EC6E
:1036C000100BFDF7C6F89DED000B41EC1A0B53EC07
:1036D000102B9DED260B51EC100BFCF7F9FE9DED28
:1036E000061B53EC112B2FE0000000604715F73F3D
:1036F000FE822B654715F73F44DF5DF80BAE543E65
:1037000000000000000040438E9803007AB60B00D2
:1037100062140000901400009A13000000000000E2
:103720000000000000000840000000E009C7EE3F74
:10373000FD033ADC09C7EE3FF5015B14E02F3EBE06
:1037400026120000E0110000FDF783F853EC1A2B5D
:10375000FCF71DFE9DED060B41EC1A0B53EC102BF4
:103760009DED000B51EC100BFDF773F8CDE90C014A
:103770009DED0C0B51EC1A0B53EC102BFCF707FED4
:10378000CDE902010C46AA498C422FDB611A08439D
:1037900018D19DED0C0B53EC102B9DED020B51EC51
:1037A000100BFCF795FE41EC1B0B9FEDA30B51ECAE
:1037B0001A0B53EC102BFCF7EAFD53EC1B2BFDF717
:1037C000EDF82DD2022000F053FA00F021FA10EEAD
:1037D000901A18EE900A8DED020B8DED008B61F3BF
:1037E0001E0003909DED020BFFF7BEBB944A24F030
:1037F0000041914214D39349214408437FF4EFAC34
:103800009DED0C0B53EC102B9DED020B51EC100BAE
:10381000FCF75EFE53EC1A2BFDF7C0F87FF6DFAC29
:1038200024F000408849894A002601EB2051824259
:103830002BDA481C4FF4801121FA00F02044844A0E
:10384000C0F30A517A44A1F2FF3192ED000B814A94
:103850008DED080BCA4020EA0202C0F3130040F4C9
:103860008010C1F1140120FA01F60992002CB8BFB2
:1038700076429DED080B53EC102B9DED0C0B51EC9B
:10388000100BFCF725FECDE90C019DED0C0B51EC66
:103890001A0B53EC102BFCF77AFD9FED6F0B089081
:1038A000CDE9085153EC102B9DED080B51EC100B9A
:1038B000FCF7CFFF41EC1B0B9FED690B53EC102B7A
:1038C0009DED080B51EC100BFCF7C3FF9DED0C0BAD
:1038D00041EC1C0B53EC102B9DED080B51EC100B25
:1038E000FCF7F6FD53EC1A2BFCF7F5FD9FED5E1B84
:1038F00053EC112BFCF7ADFF53EC1C2BFCF747FDF1
:1039000041EC1A0B51EC1B0B53EC1A2BFCF73FFD4F
:10391000CDE902019DED020B53EC1B2B51EC100B7A
:10392000FCF7D6FD53EC1A2BFCF7D5FD9DED020BF1
:1039300041EC1A0B53EC102B51EC100BFCF789FFE8
:10394000CDE908014A489DED080B0521784400F0B7
:10395000AFF89DED081B51EC100B53EC112BFCF74D
:1039600078FF9DED021B53EC112BFCF7B4FDCDE964
:1039700006019DED020B53EC1A2B51EC100BFCF7DA
:1039800068FF53EC1A2BFCF702FD9FED3B0B41EC5B
:103990001A0B53EC102B9DED060B51EC100BFCF7A2
:1039A00097FD9DED060B41EC1B0B53EC102B9DED91
:1039B000020B51EC100BFCF74CFF53EC1B2BFCF7EC
:1039C00095FD53EC1A2BFCF783FD9DED021B53EC88
:1039D000112BFCF77DFD53EC192BFCF77CFDCDE999
:1039E000020101EB065001150029C8BF039015DC48
:1039F0009DED020B324651EC100BFCF79FFFFFF7D9
:103A0000F9F9042808BF00F013F932469DED020BC6
:103A100051EC100BFCF792FFCDE902019DED020B7A
:103A200051EC180B53EC102BFCF713FFFFF73ABBCC
:103A30000000904000000000FE822B654715973C77
:103A400000CC904000346F3F01FCFFFF0000E03FDE
:103A500068100000FFFF0F0000000000432EE63F4B
:103A6000396CA80C615C20BEEF39FAFE422EE63FAD
:103A7000380F0000000000000000000000000040BF
:103A8000BDEC088BBDEC06CBFFF720BABDEC088B74
:103A9000BDEC06CBFFF758BABDEC088BBDEC06CBEE
:103AA000FFF765BABDEC088BBDEC06CBFFF76DBB2D
:103AB00070B504462DED028B4D1E00EBC500B0EE37
:103AC000408AF0EE608A90ED000B35F0060017D0CA
:103AD00053EC182B51EC100BFCF7BBFE41EC100B18
:103AE0006D1E04EBC50090ED001B51EC100B53EC68
:103AF000112BFCF74CFC41EC100B35F00600E7D124
:103B0000022D36D0042D1CD0062D1CBFBDEC028B1F
:103B100070BD53EC182B51EC100BFCF79AFE94ED92
:103B20000A1B53EC112BFCF732FC53EC182BFCF75F
:103B300090FE94ED081B53EC112BFCF728FC41EC94
:103B4000100B53EC182B51EC100BFCF782FE94ED8C
:103B5000061B53EC112BFCF71AFC53EC182BFCF74B
:103B600078FE94ED040B53EC102BFCF710FC41ECA9
:103B7000100B53EC182B51EC100BFCF76AFE94ED74
:103B8000021B53EC112BFCF702FC53EC182BFCF737
:103B900060FE94ED001B53EC112BFCF7F8FBBDEC21
:103BA000028B41EC100B70BD9FED070B10B553EC71
:103BB000102B9FED070B51EC100BFCF797FC41EC21
:103BC000100B10BD0000000000000000000000000D
:103BD000000000000000F03F10B553EC112B51EC39
:103BE000100BFCF7D4FB41EC100B10BD00000000E3
:103BF0009FED050B10B553EC102B51EC100BFCF79F
:103C000075FC41EC100B10BD00000000000000002E
:103C10009FED050B10B553EC102B51EC100BFCF77E
:103C200018FE41EC100B10BD0000000000000070F9
:103C30009FED050B10B553EC102B51EC100BFCF75E
:103C400008FE41EC100B10BD000000000000001049
:103C500002E008C8121F08C1002AFAD17047704755
:103C6000002001E001C1121F002AFBD170470000B3
:103C70000149086070470000200000202DE9FF5F27
:103C800082B00021DDE90430020DDDF840B00343CD
:103C900018D044F61050A2F2FF3242431514119886
:103CA00001281FD0A5EB0B00401C5FEA000A4FF073
:103CB00000064E4FDFF83891B046504615D5CAF190
:103CC000000413E0119801244AA3012801D16FEAEE
:103CD0000B010298119AC0E90031C0E9024206B016
:103CE00000F08EB8CBF10000DFE704460021404A27
:103CF000491842EB0450CDE9001012E0E00707D06C
:103D000032463B4640464946FCF7A3FD804689467D
:103D100032463B4610461946FCF79BFD06460F46C9
:103D20006410002CEAD1DDE90401DDE90023BAF1D9
:103D3000000F06DAFCF78DFD42464B46FCF789FD85
:103D400005E0FCF7D3FB42464B46FCF7CFFB0446AD
:103D50000E460022284BFCF721FE03D84FF0FF301F
:103D6000014607E00022254B20463146FCF70FFBB9
:103D7000FCF7FBFD102409E0002C0ADB0A220023DB
:103D8000FCF720FA039B30321A55641E50EA0102F8
:103D9000F2D1641C039AC4F111031444119A012A4C
:103DA00003D0012208430DD10AE0084304D00020CB
:103DB0004FF0110B119072E7A3EB0B056D1E0DE098
:103DC0005B4504DD4FF0000205F1010504E003DA74
:103DD0004FF00002A5F10105002AECD002981199DC
:103DE000C0E90231C0E9004579E700000000144055
:103DF0000000F03F300000000000F0430000E03F12
:103E000030BCBDE8C09F00002DE9FF4F95B09B4638
:103E10008946064600250FE2252877D1002427464B
:103E2000F84A0121059400E0044316F8013F203BC5
:103E300001FA03F01042F7D130782A2811D06FF040
:103E40002F033078A0F13002092A16D8059A44F0E1
:103E5000020402EB820203EB42021044761C05903E
:103E6000EFE759F8042B0592002A03DA504244F494
:103E70000054059044F00204761C30782E2816D1A8
:103E800016F8010F44F004042A280DD06FF02F0219
:103E90003078A0F13003092B09D807EB870302EB38
:103EA0004303C718761CF3E759F8047B761C307877
:103EB0006C280FD006DC4C2817D068280DD06A2853
:103EC00014D104E0742810D07A280FD10DE044F406
:103ED00000140AE044F4801401E044F440147278C1
:103EE000824202D104F58014761C761C3078662854
:103EF0000BD013DC582877D009DC002875D0452872
:103F0000F6D04628F4D047281AD19DE118E063285E
:103F100035D0642879D0652812D195E1702873D006
:103F200008DC6728F1D069286FD06E280DD06F2883
:103F300006D1B5E073282CD0752875D0782874D0B8
:103F40005A46179990476D1C75E1C4F30250022838
:103F500009D003280DD0D9F8001004280DD00D6029
:103F600009F1040967E1D9F80010EA17C1E9005224
:103F7000F6E7D9F800100D80F2E70D70F0E719F8B8
:103F8000041B8DF8001000208DF80100EA46012086
:103F900003E059F804AB4FF0FF3061074FF0000128
:103FA00002D40DE008F101018846B9420FDA8045DC
:103FB000F8DB1AF808100029F4D108E008F1010133
:103FC00088468142FADB1AF808100029F6D10598D4
:103FD0005B46A0EB080721463846179A00F097FA8F
:103FE000284400EB080507E04DE029E10DE01AF850
:103FF000010B5A4617999047B8F10108F7D25B4672
:1040000021463846179A13E142E00A220092C4F38F
:1040100002524FF0000A022A08D059F804CB032AB2
:104020004FEAEC710AD00DE029E02AE009F107011E
:1040300021F00702F2E802C1914609E00FFA8CFC78
:104040004FEAEC71042A03D14FFA8CFC4FEAEC7171
:10405000002907DA0A460021DCF1000C61EB0201BD
:104060002D2202E0220504D52B228DF80420012206
:1040700003E0E20701D02022F7E7904659E00A2149
:1040800002E010220DE010214FF0000A00910BE039
:1040900010224FF0000A44F004040827009203E0C5
:1040A00008224FF0000A0092C4F30252022A05D0FF
:1040B00059F804CB0021032A08D009E009F10701CF
:1040C00021F00702F2E802C1914605E01FFA8CFCDC
:1040D000042A01D10CF0FF0C4FF00008220728D56C
:1040E000702806D0009B83F0100353EA0A0305D022
:1040F0000EE040228DF80420012208E05CEA010273
:1041000006D030228DF804208DF80500022290465A
:10411000009B83F0080353EA0A030AD15CEA010218
:1041200001D1620705D530228DF804204FF0010837
:104130007F1E582804D034A003900EA802900DE0F2
:1041400036A0F9E753466046009AFCF73BF88446F0
:104150000398825C0298401E029002705CEA0100A3
:10416000F0D1029806A9081A00F1200A600702D5CA
:1041700024F4803400E00127574502DDA7EB0A0054
:1041800000E0002000EB0A01009005984144401A2D
:104190000590E00306D45B462146179A059800F087
:1041A000B6F90544002706E001A85A46C05D1799F4
:1041B00090476D1C7F1C4745F6DBE0030CD55B4642
:1041C0002146179A059800F0A2F9054404E0302032
:1041D0005A46179990476D1C0099481E0090002977
:1041E000F5DC08E0029802995A460078491C0291D1
:1041F000179990476D1CBAF10001AAF1010AF1DC90
:1042000065E100000928010030313233343536379A
:104210003839616263646566000000003031323312
:1042200034353637383941424344454600000000B2
:1042300000F05BF90544761C307800287FF4ECAD83
:1042400019B0284600F04EB9620700D4062709F1DC
:10425000070222F0070CFCE80223E14603F00048C5
:104260005FEA080C02D00FF2702C0DE05FEA045CEC
:1042700002D50FF2682C07E05FEAC47C02D00FF28F
:10428000602C01E0AFF2700C4FF0FF3823F00043D8
:10429000CDF850C065280CD006DC452809D046284A
:1042A0001DD047283DD13DE0662818D067287ED133
:1042B00038E00021112F01DB112000E0781CCDE94E
:1042C000000106A90EA8FFF7D9FCDDE90F010E9A3F
:1042D00003910021009207F1010A04914DE04FF093
:1042E00000400097CDE9011006A90EA8FFF7C6FC13
:1042F000DDE90F0203920E9B11990022DDF80CA05C
:104300000093049211B9791C00EB010AB7EB0A0083
:1043100004D4C0F1FF3007F1010A0490AAEB0700B2
:10432000019044E0012F00DA01270021112F01DD67
:10433000112000E03846CDE9000106A90EA8FFF7DC
:104340009DFCDDE90F010E9A03910021049100927A
:10435000BA4621070CD40399514500DA8A46BAF1CE
:10436000010F05DD009AAAF10101515C302908D046
:10437000B84202DA10F1040F06DA0121CDE901108A
:1043800015E0AAF10101E9E7002805DC04990144E0
:104390000491AAEB000102E0411C514500DD8A4670
:1043A0000499401A401C01904FF0004002902007F1
:1043B00004D40198504501DBCDF8048000208DF82D
:1043C0004F0002980DF14F07B0F1004F25D02B2080
:1043D0000E9002984FF0020800280CDA404202903A
:1043E0002D200E9007E00A210298FCF738F93031B1
:1043F000029007F8011DB8F10001A8F10108F2DCF4
:1044000002980028EFD1791E0E980870307800F0DD
:10441000200040F0450007F8020D12A8C01B00F173
:1044200007081498007800B1012000EB0A010198F8
:1044300001EBE07105984144401A401E0590E003ED
:1044400006D45B462146179A059800F060F80544AB
:104450001498007818B15A46179990476D1CE003DC
:1044600024D55B462146179A059800F050F805447C
:104470001CE00498002807DBDDE90301884203DD26
:104480000098405C179901E0179930205A469047F0
:10449000049805F10105401C04900198401E01900C
:1044A00004D12E205A46179990476D1CBAF100018D
:1044B000AAF1010ADDDC05E017F8010B5A4617994D
:1044C00090476D1CB8F10001A8F10108F4DC5B46CF
:1044D0002146179A0598ABE62D0000002B0000003E
:1044E0002000000030BCBDE8C08F2DE9F04104463B
:1044F00000251E461746880404D405E039462020CE
:10450000B0476D1C641EF9D52846BDE8F0812DE941
:10451000F041044600251E469046C80301D53027C9
:1045200000E02027880404D505E041463846B0471E
:104530006D1C641EF9D52846BDE8F0810A68531C3D
:104540000B601070704782B0CDE9000121F000408F
:1045500001909DED000B02B051EC100B7047000074
:1045600013B5FF23012269460248FDF7B9FC009804
:104570001CBD00002404002010B5002821D0114BE0
:104580000022001F196803E0814203D80A464968E7
:104590000029F9D152B11368841A9C4204D10068F1
:1045A00018441060104602E0506000E0186039B115
:1045B00002680B1A934203D10B681A4402604968DF
:1045C000416010BD18000020ADF50C7D00208290E8
:1045D00083908490FCF71EFDFEF70EF9FDF714FDA5
:1045E000FDF772FDFDF798FD01222B492B48FDF7E1
:1045F00007FCFDF7BBFDFCF78DFA00BFFDF7CAFC19
:10460000012802D002283DD104E025A126A0FDF713
:10461000CFFF37E085A8FCF7E5FA012810D188988C
:10462000FCF70AF804460D468798FCF705F841ECBC
:10463000100B21A053EC102BCDE90045FEF7B6FB83
:104640008898FBF7F9FF41EC100B28A153EC102BD5
:1046500089A8FEF7BBFB8798FBF7EEFF41EC100B38
:1046600022A153EC102B8AA8FEF7B0FB082282A9E6
:1046700089A8FCF71DFA82A8FDF75EFF4FF496604B
:10468000FCF7B7FB02A8FDF70BFE0128B6D102A983
:1046900018A0FEF78BFBB1E7020000209C0400206D
:1046A00035363833000000003133392E3135392E9C
:1046B0003134302E33340000B6C1C8A144485431DF
:1046C00031B3C9B9A6212D2D3ECAAAB6C8CEAA2596
:1046D0002E316620A3A5524820A3ACCEC2B6C8CEC8
:1046E000AA20252E3166A1E6200A0000252E31667B
:1046F000000000006D7367526563656976653A2551
:1047000073000000F0B50B30154D20F007010024B8
:10471000144A0FE003688B420BD38B4205D95E1A13
:1047200043184768C3E9006700E04368136002C0AC
:1047300004E0021D10680028ECD12046002802D1B8
:10474000286808B10020F0BD064A07481060074AF3
:10475000121A22F00702C0E9002401202860D7E7DE
:104760001C000020180000201C0500201807002055
:1047700000B52DED048B83B041EC190BFCF746F925
:1047800041EC180B18EE100A18EE901A8DED008B04
:10479000002818BF0120084320F00040C0F17F60CE
:1047A00000F1E040C00F14D019EE101A19EE900A73
:1047B0008DED009B002918BF0121084320F0004027
:1047C000C0F17F6000F1E040C00F04BF0120FFF79F
:1047D0004FFA51EC180B03B0BDEC048B00BD000088
:1047E00000000000000000000102030406070809A1
:1047F000A0860100400D0300801A060000350C0061
:1048000040420F0080841E0000093D0000127A0023
:104810000024F40000366E010048E801006CDC0260
:104820000000000001020304000000000000F03F4F
:10483000000000000000F83F000000000000000041
:104840000000004003B8E23F00000000000000004C
:1048500006D0CF43EBFD4C3E033333333333E33FDA
:10486000FFAB6FDBB66DDB3F4D268F515555D53F06
:1048700001411DA96074D13F65DBC9934A86CD3FD4
:10488000EF4E454A287ECA3F3E5555555555C53FC2
:1048900093BDBE166CC166BF2CDE25AF6A56113FB4
:1048A000F16BD2C541BDBBBED0A4BE726937663EB6
:1048B0000000000000000000004040404040404038
:1048C00040404141414141404040404040404040E3
:1048D0004040404040404040400502020202020287
:1048E00002020202020202020220202020202020D6
:1048F00020202002020202020202909090909090EA
:1049000010101010101010101010101010101010A7
:10491000101010100202020202028888888888881B
:104920000808080808080808080808080808080807
:10493000080808080202020240000000B948000806
:10494000604900080000002024000000503C0008DE
:104950008449000824000020F40A0000603C00089C
:1049600000000000000000000000000000093D0001
:104970000000000000000000000000000000000037
:044980000000000033
:040000050800018D61
:00000001FF
